:100000000C945C000C9459030C9432030C9479000A
:100010000C9479000C9479000C9479000C9479007C
:100020000C9479000C9479000C9479000C9479006C
:100030000C9479000C9480030C9479000C94790052
:100040000C94E8020C9479000C949D030C947900B4
:100050000C9479000C9479000C9479000C9479003C
:100060000C9479000C947900000000002400270013
:100070002A0000000000250028002B0004040404CE
:100080000404040402020202020203030303030342
:10009000010204081020408001020408102001021F
:1000A00004081020000000080002010000030407FB
:1000B000000000000000000011241FBECFEFD8E0B8
:1000C000DEBFCDBF13E0A0E0B1E0E0E4F3E102C0A9
:1000D00005900D92AC31B107D9F723E0ACE1B3E064
:1000E00001C01D92AE3BB207E1F70E94D5030C940C
:1000F0009E090C94000090E0FC01EC55FF4F249108
:10010000FC01E057FF4F3491FC01E458FF4FE491AC
:10011000EE23C9F0222339F0233001F1A8F4213075
:1001200019F1223029F1F0E0EE0FFF1FEE58FF4FDA
:10013000A591B4918FB7F894EC91611126C03095D8
:100140003E233C938FBF08952730A9F02830C9F093
:10015000243049F7809180008F7D03C0809180001A
:100160008F7780938000DFCF84B58F7784BDDBCF1E
:1001700084B58F7DFBCF8091B0008F778093B000E6
:10018000D2CF8091B0008F7DF9CF3E2BDACFCF93C5
:10019000DF9390E0FC01E057FF4F249184589F4F7C
:1001A000FC0184918823D1F090E0880F991FFC0115
:1001B000E859FF4FA591B491FC01EE58FF4FC5914E
:1001C000D491623071F49FB7F8943C91822F80955E
:1001D00083238C93E8812E2B28839FBFDF91CF91BF
:1001E00008958FB7F894EC912E2B2C938FBFF6CFF8
:1001F0003FB7F8948091BA039091BB03A091BC03E0
:10020000B091BD0326B5A89B05C02F3F19F00196FC
:10021000A11DB11D3FBFBA2FA92F982F8827BC0160
:10022000CD01620F711D811D911D42E0660F771F88
:10023000881F991F4A95D1F7089508959091C0009D
:1002400095FFFCCF8093C60008958F929F92AF9246
:10025000BF92CF92DF92EF92FF920F931F93CF93B3
:10026000DF93CDB7DEB72E970FB6F894DEBF0FBE83
:10027000CDBF87E0EEE0F1E0DE01119601900D9236
:100280008A95E1F787E0E5E1F1E0DE01189601905B
:100290000D928A95E1F7CE0101967C018E01085FEF
:1002A0001F4FF70181917F010E941E010E151F054E
:1002B000C1F70E94F8004B015C0188EEC82E83E074
:1002C000D82EE12CF12C0E94F800681979098A09CE
:1002D0009B09683E734081059105A8F3F1E0CF1AB0
:1002E000D108E108F10828EE820E23E0921EA11C3D
:1002F000B11CC114D104E104F10429F77E018FE09F
:10030000E80EF11CF80181918F010E941E010E156B
:100310001F05C1F72E960FB6F894DEBF0FBECDBFF6
:10032000DF91CF911F910F91FF90EF90DF90CF90D1
:10033000BF90AF909F908F900895CF93DF93EC0183
:100340008991882319F00E941E01FACFDF91CF9185
:10035000089580911E03811107C08AE491E00E94F4
:100360009D0181E080931E031092B00360E085E060
:100370000E947B0085E691E00E949D0180E091E073
:100380000E949D0180E091E00E949D011092210356
:100390001092220310922303109224030E9425013D
:1003A0001092AD031092AC031092B2031092B103FD
:1003B00008958091B0038823B1F08091210390913A
:1003C0002203A0912303B09124030196A11DB11D26
:1003D0008093210390932203A0932303B0932403DB
:1003E00081E080931C030895CF92DF92EF92FF92F9
:1003F0000F931F93CF93DF93CDB7DEB7E2970FB67E
:10040000F894DEBF0FBECDBFC0901F03D090200375
:10041000F12CE12C8091AB038F938091AA038F93F1
:100420008091A9038F938091A8038F931F921F92AD
:10043000DF92CF9285E791E09F938F931F9282E3A3
:100440008F938E010F5F1F4F1F930F930E9496068D
:10045000C8010E949D010FB6F894DEBF0FBECDBF4C
:100460008091A8039091A903A091AA03B091AB0336
:10047000C816D906EA06FB0640F10E94A90100E071
:1004800011E07801F70181917F010E941E01FAE0DD
:10049000EF16F1E0FF06B1F7F80181918F010E949C
:1004A0001E01F1E00A301F07B9F782E090E0909357
:1004B000B4038093B3030E9425011092AD03109200
:1004C000AC031092B2031092B103E2960FB6F89407
:1004D000DEBF0FBECDBFDF91CF911F910F91FF9077
:1004E000EF90DF90CF900895EF92FF920F931F93BC
:1004F000CF93DF93CDB7DEB7E2970FB6F894DEBFA8
:100500000FBECDBF80911D03811107C081EA91E02C
:100510000E949D0181E080931D0361E082E00E94C2
:100520007B0060E088E00E947B0081E08093B00364
:1005300000E911E08BECE82E87E0F82E61E085E021
:100540000E947B00C7010197F1F760E085E00E94FF
:100550007B00C7010197F1F70150110979F78091EC
:100560001C03882341F18CEB91E00E949D01809156
:10057000210390912203A0912303B0912403BF9300
:10058000AF939F938F938DED91E09F938F931F92E5
:1005900082E38F938E010F5F1F4F1F930F930E9473
:1005A0009606C8010E949D0110921C030FB6F89494
:1005B000DEBF0FBECDBFE2960FB6F894DEBF0FBE12
:1005C000CDBFDF91CF911F910F91FF90EF900895D4
:1005D0001F920F920FB60F9211242F933F938F9378
:1005E0009F93AF93BF938091B6039091B703A0916F
:1005F000B803B091B9033091B50323E0230F2D3731
:1006000058F50196A11DB11D2093B5038093B60343
:100610009093B703A093B803B093B9038091BA0342
:100620009091BB03A091BC03B091BD030196A11DA5
:10063000B11D8093BA039093BB03A093BC03B09306
:10064000BD03BF91AF919F918F913F912F910F90DB
:100650000FBE0F901F90189526E8230F0296A11D3C
:10066000B11DD2CF1F920F920FB60F9211242F936C
:100670003F934F935F936F937F938F939F93AF932A
:10068000BF93EF93FF93E0910C01F0910D01099559
:10069000FF91EF91BF91AF919F918F917F916F915A
:1006A0005F914F913F912F910F900FBE0F901F9030
:1006B00018951F920F920FB60F9211242F933F930C
:1006C0004F935F936F937F938F939F93AF93BF935A
:1006D000EF93FF93E0910A01F0910B010995FF91CF
:1006E000EF91BF91AF919F918F917F916F915F91AA
:1006F0004F913F912F910F900FBE0F901F90189523
:100700001F920F920FB60F9211248F939F9380E345
:1007100098EF909385008093840080911F039091BF
:10072000200301969093200380931F039F918F9144
:100730000F900FBE0F901F9018951F920F920FB63B
:100740000F9211242F934F935F938F939F93EF9367
:10075000FF932091C6008091A5039091A603803855
:100760009105F4F48091A5039091A603AC014F5F2D
:100770005F4F5093A6034093A5038B5D9C4FFC01F4
:10078000208381E08093A703FF91EF919F918F9148
:100790005F914F912F910F900FBE0F901F90189562
:1007A0001092A6031092A503EFCFCF93DF93CDB79E
:1007B000DEB7CA5AD1090FB6F894DEBF0FBECDBF5F
:1007C000789484B5826084BD84B5816084BD85B52C
:1007D000826085BD85B5816085BD80916E00816038
:1007E00080936E00109281008091810082608093DE
:1007F00081008091810081608093810080918000E0
:100800008160809380008091B10084608093B1000A
:100810008091B00081608093B00080917A00846004
:1008200080937A0080917A00826080937A00809130
:100830007A00816080937A0080917A00806880934A
:100840007A001092C10061E085E00E94C70061E07B
:1008500082E00E94C70061E088E00E94C70060E07B
:1008600088E00E947B0062E083E00E94C70089ED7F
:1008700091E090930D0180930C0180916900837F3A
:10088000886080936900E99A87E690E09093C500BC
:100890008093C4008091C20086608093C2008091E2
:1008A000C10088698093C100F89410928000109272
:1008B000810080E398EF909385008093840080917D
:1008C000810082608093810080916F0081608093BD
:1008D0006F007894789481EF91E00E949D01CE01A1
:1008E00001967C018E010E571F4F6E0190EAC90ED2
:1008F000D11C22E0222E312C44244394512C48EE6A
:10090000642E43E0742E52E0852E53E0952E8091A4
:10091000A703882309F44EC11092A70340E850E0D2
:1009200065E273E0C7010E946D06CF57DF4F188262
:10093000C158D04088EF91E00E949D01C7010E94FC
:100940009D0160E471E085E293E00E947C06892BC2
:10095000C9F18091B203882309F494C08091B10356
:10096000882309F48FC05092B4034092B3031092CD
:100970002103109222031092230310922403109259
:10098000200310921F0388E092E00E949D01809155
:10099000AF03811117C082E392E00E949D0196E3AC
:1009A000A92E91E0B92ED5018D915D010E941E0105
:1009B000B0E4AB16B1E0BB06B1F781E08093AF03C2
:1009C0001092AE036CE271E085E293E00E947C0637
:1009D000892B39F13092B4032092B30387E992E076
:1009E0000E949D018091AE03811117C080EC92E0BE
:1009F0000E949D0182E2A82E81E0B82EF50181912E
:100A00005F010E941E01FCE2AF16F1E0BF06B1F7E4
:100A100081E08093AE031092AF031092B203109264
:100A2000B1036FE171E085E293E00E947C060097DC
:100A300009F45DC0855293409927FC01EB5DFC4FA2
:100A4000DF0111972C91233809F051C02181283002
:100A500009F04DC09C012C5F3F4FF901EB5DFC4F4D
:100A60004081240F311D213831050CF040C0FC01BC
:100A7000E65DFC4FD6018A2F8C19841760F48191B2
:100A80008D93F9CF8FE492E00E949D011092B40300
:100A90001092B30397CF1092AD03442381F0D60197
:100AA0009C9190539093AD03413049F011968C91F5
:100AB0008053BAE09B9F800D11248093AD038091F9
:100AC000AD031F928F93EEEDF2E0FF93EF931F9330
:100AD0000F930E94C606C8010E949D0181E0809389
:100AE000B1030F900F900F900F900F900F906CE14B
:100AF00071E085E293E00E947C06009709F44FC004
:100B0000855293409927FC01EB5DFC4FDF01119763
:100B10002C91233809F043C021812F3F09F03FC0B9
:100B20000496DC01AB5DBC4F2C91820F911D813886
:100B30009105ACF51092AC032223C9F085812230D7
:100B400030F09681C655DF4F9883CA5AD040805303
:100B5000223058F0C655DF4FB881CA5AD040AAE0BB
:100B60008A9FB00D11248B2F80538093AC0380910A
:100B7000AC031F928F93E0EFF2E0FF93EF931F938C
:100B80000F930E94C606C8010E949D0181E08093D8
:100B9000B2030F900F900F900F900F900F90109244
:100BA000A6031092A503E5E2F3E0DF0120E81D9221
:100BB0002A95E9F78091B3039091B40381309105B0
:100BC00041F0029709F473C01092AF031092AE0384
:100BD00051C08091B203882309F460C08091B103B1
:100BE000882309F45BC02091AC0330E0A0E6BAEEA4
:100BF0000E945E064091AD03469D9001479D300DD9
:100C00001124DC01CB01820F931FA11DB11D809324
:100C1000A8039093A903A093AA03B093AB03BF9337
:100C2000AF939F938F939F928F921F9282E38F93A4
:100C3000FF92EF920E949606C7010E949D010E94BA
:100C400074020E94F4012091B3033091B4030FB6F3
:100C5000F894DEBF0FBECDBF8091B00321303105C7
:100C600089F481110FC00E9474028091B003811138
:100C70000E94F401A0E0B0E0AB2B09F448CE0E9442
:100C8000000037CE2091B3033091B40322303105F8
:100C900061F7882351F30E94A901E7CF8FE492E026
:100CA0000E949D011092B4031092B303E3CF809190
:100CB000B0038823F9F20E94A901F4CFA29FB001EA
:100CC000B39FC001A39F700D811D1124911DB29F80
:100CD000700D811D1124911D0895FB01DC0141500F
:100CE000504048F001900D920020C9F701C01D92BC
:100CF00041505040E0F70895FB0151915523A9F070
:100D0000BF01DC014D9145174111E1F759F4CD01C7
:100D10000190002049F04D9140154111C9F3FB01AC
:100D20004111EFCF81E090E001970895AEE0B0E08F
:100D3000ECE9F6E00C9475090D891E898F89988D70
:100D400026E02C831A83098397FF02C080E090E895
:100D500001979E838D83AE01455E5F4F698D7A8DCD
:100D6000CE0101960E94E9064D815E8157FD0AC0C1
:100D70002F813885421753070CF49A01020F131F75
:100D8000F80110822E96E4E00C949109AEE0B0E0F8
:100D9000ECECF6E00C9475090D891E8986E08C83D5
:100DA0001A8309838FEF9FE79E838D83AE01475E91
:100DB0005F4F6F89788DCE0101960E94E9062F81E1
:100DC0003885020F131FF80110822E96E4E00C9470
:100DD0009109ABE0B0E0EFEEF6E00C9467097C011E
:100DE0003B018A01FC0117821682838181FFC8C101
:100DF000CE0101965C01F7019381F30193FD85918A
:100E000093FF81913F01882309F453C1853239F45E
:100E100093FD859193FF81913F01853229F4B701BC
:100E200090E00E94D908E7CF912C212C312CFFE1D2
:100E3000F31538F08B3211F190F4803209F18332DE
:100E400029F137FC3CC020ED280F2A3050F536FE42
:100E500020C08AE0989E200D1124922E06C08D326B
:100E600091F0803371F7689430F8F30193FD859128
:100E700093FF81913F018111DACF21C0689431F84D
:100E8000689432F8F2CF689433F8EFCF689434F86E
:100E9000ECCFEAE02E9E200D1124222E689435F826
:100EA000E4CF8E3229F436FC04C1689436F8DDCFE5
:100EB0008C3619F4689437F8D8CF8836B1F2982F69
:100EC0009F7D95549330E0F08336A1F18337C1F1D3
:100ED000833509F063C02801F2E04F0E511CF80180
:100EE000C080D180692D70E036FC02C06FEF7FEFCB
:100EF000C6010E94C3084C01689437F882010AC0F9
:100F00000C5F1F4FFFE3F98388248394912C6501C4
:100F1000E89437F833FE2DC0522C8114910471F5FA
:100F2000552009F468CFB70180E290E00E94D9080B
:100F30005A94F6CFF801808189830E5F1F4FE4CF6A
:100F40002801F2E04F0E511CF801C080D180692DBC
:100F500070E036FC02C06FEF7FEFC6010E94CE0842
:100F60004C018201D5CFB70180E290E00E94D90800
:100F70002A942814190409F0B0F7CECFF60137FCF3
:100F8000859137FE81916F01B70190E00E94D908E9
:100F900051105A94F1E08F1A9108BFCF843619F09E
:100FA000893609F077C0F80137FE6BC06081718126
:100FB000828193810C5F1F4FF32DFF763F2E97FFA9
:100FC00009C090958095709561957F4F8F4F9F4F89
:100FD000689437F82AE030E0A5010E940909C82E7C
:100FE000CA188C2C432C36FE0CC0E89440F8C91467
:100FF00040F434FE05C032FC03C0F32DFE7E4F2EBC
:10100000892C44FE95C0FE01EC0DF11D80818033DA
:1010100009F087C0242D297E422E842D8870582EF9
:1010200043FC95C040FE8FC09C2C821418F42C0CFD
:10103000922C981844FE91C0B70180E390E00E9482
:10104000D90842FE09C088E790E041FE02C088E569
:1010500090E0B7010E94D908C91408F48AC0CA9464
:10106000D12C9FEFC91AD90ACA0CDB1CF601829158
:101070006F01B70190E00E94D908AC14BD04B1F72C
:101080004FCF60817181072E000C880B990B0E5F8A
:101090001F4F92CFD32CE894D4F82AE030E0853764
:1010A00039F1232D297FD22E8F3601F148F488356E
:1010B000A9F0F701868197812B96E2E10C948309D0
:1010C000803749F08837A9F7D4FE02C06894D2F877
:1010D00020E130E00DC06894D4F8F6CF34FE03C0B0
:1010E000822F8660D82E20E132E002C028E030E076
:1010F000F801D7FE0FC060817181828193810C5FFE
:101100001F4FA5010E940909C82ECA183D2CE8945A
:1011100037F867CF6081718190E080E00E5F1F4FEC
:10112000F0CF42FC02C0839478CF8394839475CF30
:10113000842D867809F471CFF6CFB70180E290E074
:101140000E94D90883948214C0F3512C73CF522C7F
:101150005818821408F46ECFF8CF842D867809F4DD
:101160007BCF8BE241FE80E247FC8DE2B70190E04D
:1011700071CFB70180E390E00E94D9089A946CCFB8
:101180008FEF9FEF99CFFC010590615070400110E7
:10119000D8F7809590958E0F9F1F0895FC016150A0
:1011A000704001900110D8F7809590958E0F9F1F89
:1011B00008950F931F93CF93DF93182F092FEB01FF
:1011C0008B8181FD09C01FEF0FEF812F902FDF91E1
:1011D000CF911F910F91089582FF14C02E813F81FE
:1011E0008C819D81281739073CF4E881F981CF0172
:1011F00001969983888310838E819F8101969F83B6
:101200008E83E3CFE885F985812F0995892BA1F39A
:10121000DACFFA01AA27283051F1203181F1E89480
:101220006F936E7F6E5F7F4F8F4F9F4FAF4FB1E0D9
:101230003ED0B4E03CD0670F781F891F9A1FA11DD4
:10124000680F791F8A1F911DA11D6A0F711D811DD5
:10125000911DA11D20D009F468943F912AE0269F9A
:1012600011243019305D3193DEF6CF010895462FF9
:101270004770405D4193B3E00FD0C9F7F6CF462FDA
:101280004F70405D4A3318F0495D31FD4052419343
:1012900002D0A9F7EACFB4E0A69597958795779500
:1012A0006795BA95C9F700976105710508959B0187
:1012B000AC010A2E06945795479537952795BA9510
:1012C000C9F7620F731F841F951FA01D08952F92E9
:1012D0003F924F925F926F927F928F929F92AF92C6
:1012E000BF92CF92DF92EF92FF920F931F93CF9313
:1012F000DF93CDB7DEB7CA1BDB0B0FB6F894DEBFAA
:101300000FBECDBF09942A88398848885F846E84CF
:101310007D848C849B84AA84B984C884DF80EE8019
:10132000FD800C811B81AA81B981CE0FD11D0FB622
:10133000F894DEBF0FBECDBFED010895F894FFCF46
:101340005AA5078200845A0100001D011D015AA5FB
:1013500005821009005AA505821000000FFF001039
:1013600008005AA5078200845A0100005AA5068386
:101370001014010001005AA5078200845A010001DF
:101380005AA5068310120100010053746570706540
:1013900072206D6F746F722073746F7070696E67F6
:1013A0002E2E2E0A004D6F746F722073746F707042
:1013B00065642E0A00456C61707365642054696D24
:1013C000653A20256C75206D732C2052756E204473
:1013D00075726174696F6E3A20256C75206D730AA1
:1013E0000053746570706572206D6F746F72207336
:1013F00074617274696E672E2E2E0A0042757474C1
:101400006F6E206576656E742064657465637465BF
:10141000642E20436F756E7465723A2000526F74AB
:101420006174696F6E20436F756E743A2025750A7A
:10143000000A46542D470A00526563656976656463
:1014400020446174613A20005374617274206275A3
:1014500074746F6E2064657465637465642C2073A6
:1014600074617274696E67206D6F746F722E2E2EA8
:101470000A0053656E64696E6720476F746F53741A
:101480006F7020636F6D6D616E642E2E2E0A0045A5
:1014900072726F723A205365744D696E20616E648A
:1014A000205365745365632076616C756573206D98
:1014B00075737420626520736574206265666F724F
:1014C00065207374617274696E6720746865206D3D
:1014D0006F746F722E0A0053746F7020627574748B
:1014E0006F6E2064657465637465642C2073746F1B
:1014F0007070696E67206D6F746F722E2E2E0A00E9
:1015000053656E64696E6720476F746F53746172C0
:101510007420636F6D6D616E642E2E2E0A006461FF
:101520007461205365636F6E64733A2564200A000A
:1015300064617461206D696E757465733A25642009
:101540000A0052756E204475726174696F6E205383
:0C15500065743A20256C75206D730A004C
:00000001FF
