:020000040000FA
:100000000C948B010C94B3010C94B3010C94B301C8
:100010000C94B3010C94B3010C94B3010C94B30190
:100020000C94B3010C94B3010C94B3010C948A1991
:100030000C94B3010C94C7150C94F9150C94B301EE
:100040000C94B3010C94B3010C94B3010C94A3145D
:100050000C94B301084AD73B3BCE016E84BCBFFD74
:10006000C12F3D6C74319ABD56833DDA3D00C77F88
:1000700011BED9E4BB4C3E916BAAAABE0000008021
:100080003F0000407A10F35A00A0724E1809001089
:10009000A5D4E80000E87648170000E40B540200FD
:1000A00000CA9A3B000000E1F50500008096980028
:1000B000000040420F000000A08601000000102751
:1000C00000000000E80300000000640000000000E1
:1000D0000A00000000000100000000002C76D88813
:1000E000DC674F0823DFC1DFAE59E1B1B796E5E326
:1000F000E453C63AE651997696E8E6C28426EB893F
:100100008C9B62ED407C6FFCEFBC9C9F40F2BAA5DB
:100110006FA5F490055A2AF75C936B6CF9676DC173
:100120001BFCE0E40D47FEF520E6B500D0ED902E77
:100130000300943577050080841E080000204E0AD5
:10014000000000C80C333333330F986E1283114113
:10015000EF8D2114893BE65516CFFEE6DB18D184DE
:100160004B381BF77C1D901DA4BBE4242032847205
:100170005E228100C9F124ECA1E53D273C736E733A
:100180000074696D653E00736E733E002D2D2D2D3C
:100190002D2D2D2D2D2D2D2D2D2D2D2D2D2D2D2D8F
:1001A0002D2D2D2D2D2D2D2D2D2D2D2D2D2D2D2D7F
:1001B0002D2D2D2D2D0073746162696C6973696E2C
:1001C00067206779726F20706C6561736520776155
:1001D0006974002D2D2D2D2D2D2D2D2D2D2D2D2DF9
:1001E0002D2D2D2D2D2D2D2D2D2D2D2D2D2D2D2D3F
:1001F0002D2D2D2D2D2D2D2D2D2D2D2D0066696CA8
:1002000074657265642076616C75653A0046616953
:100210006C656420746F207365747570206D656102
:10022000737572656D656E74004661696C656420F6
:10023000746F20696E697420544443373230300043
:100240002D2D205374617274696E672054444337B6
:100250003230302074657374202D2D007E7E7E7EBA
:100260007E7E7E7E7E7E7E7E7E7E7E7E7E44696516
:1002700073656C2D4579652D56312E327E7E7E7EDE
:100280007E7E7E7E7E7E7E7E7E7E7E7E7E7E00008A
:10029000000002000000000000000005040007004C
:1002A000000000000000000000000000000000014D
:1002B0000204081020408001020408102040800140
:1002C000020408102040800102040810204080022F
:1002D00002020202020202040404040404040403ED
:1002E00003030303030303010101010101010100F1
:1002F00000390036003300300000003B0038003584
:1003000000320000003A003700340031000055048C
:10031000B4132916760411241FBECFE5D8E0DEBF42
:10032000CDBF11E0A0E6B0E0ECE2F0E502C0059040
:100330000D92A233B107D9F725E0A2E3B1E001C0E5
:100340001D92A730B207E1F711E0CAE8D1E004C07E
:100350002197FE010E94D020C738D107C9F70E941B
:100360007B190C9409280C9400009FB7F8942091F5
:10037000B5038091B303213019F48BBF9FBF08955B
:100380008FBF08952091B503222381F03FB7F894E1
:100390002091B503213069F42BB72093B3034BB7F9
:1003A0002091B403209524232BBF3FBF8DB99EB964
:1003B00008953093B303FACF6D990BC09FB9000035
:1003C000779BFECF9FB18FB90000779BFECF8FB197
:1003D00008958FB90000779BFECF8FB19FB90000C1
:1003E000779BFECF9FB10895DC01ED91FC910190C8
:1003F000F081E02D09942F923F924F925F926F927D
:100400007F928F929F92AF92BF92CF92DF92EF92A4
:10041000FF920F931F93CF93DF93CDB7DEB728974B
:100420000FB6F894DEBF0FBECDBF862E912C72E0C2
:10043000871691040CF4AFC02B833C834D835E83FD
:10044000362E8C01212C81E0881A9108E22DF0E0F3
:10045000FA83E983E815F90584F5EE0FFF1FEE0F27
:10046000FF1FFA83E9835F01A00EB11EF501C08072
:10047000D180E280F38029813A812C5F3F4F200FA9
:10048000311F3A832983F901408051806280738053
:10049000A3019201C701B6010E94481E18165CF420
:1004A000F5014082518262827382E981FA81C082C1
:1004B000D182E282F3822394C9CFA895832D8695B9
:1004C000F4E08F9FC00111249801280F391F3A834F
:1004D000298318870F8300E010E0812C912C5401B0
:1004E0003016A1F1EF81F8854190519061907190A3
:1004F000F887EF83E981FA8120813181428153813C
:10050000C301B2010E94E31B6B017C0120E030E0DB
:10051000A9010E94481E181624F0F7FAF094F7F883
:10052000F094A70196016B817C818D819E810E9450
:10053000481E87FD09C0A3019201C501B4010E94B4
:10054000E41B4B015C011F5F0F5FCACF612F70E09E
:1005500090E080E00E94711D9B01AC01C501B401D7
:100560000E94C71C28960FB6F894DEBF0FBECDBF01
:10057000DF91CF911F910F91FF90EF90DF90CF907F
:10058000BF90AF909F908F907F906F905F904F90B3
:100590003F902F900895E6CF2F923F924F925F9217
:1005A0006F927F928F929F92AF92BF92CF92DF9283
:1005B000EF92FF920F931F93CF93DF93CDB7DEB7E8
:1005C000ED970FB6F894DEBF0FBECDBFA8958EE1B4
:1005D0000E94E11A61E0892B09F060E08EE10E943F
:1005E000B31A82E391E00E945C110E94D4192B019E
:1005F0003C0128EB420E2BE0521E611C711C0E9434
:10060000D419641575058605970538F48FE10E94A5
:10061000E11A892B11F0A895F2CFA895AE01475D9C
:100620005F4F61E082E391E00E942E0E882309F47F
:1006300051C089A58DAF4AA45BA4BCA5FDA5EEA5BC
:100640002FA438A8CE0101964C013C018301081962
:1006500019092DAD342D452D5B2F6F2F7E2FC10134
:10066000A0E00E94C420E1F0EAE0AE2EB12CC12C43
:10067000D12CE12CF12C00E010E00E94D81FADAD90
:10068000A05DEAE02E9FA0191124F301A1933F0180
:100690002DAF432E542EB52FF62FE72F1C01D6CFAA
:1006A000F3011082A80155954795080D191DD40135
:1006B000CD01881999098417950764F48D91F80183
:1006C00092918F019D0121503109F9019083F80128
:1006D0008083EECF69E770E0CE01C7960E941618BE
:1006E0006981CE0189960E943518BE01675D7F4FF2
:1006F000CE01C7960E94AA18CE0189960E94A4171F
:100700001A81BE01695C7F4FCE01C1960E94A1187B
:10071000612FCE01C1960E946119BC01CE0189965C
:100720000E94A118BE01675D7F4FCE01C7960E944F
:10073000AA18CE0189960E94A417CE01C1960E94E4
:10074000A4171B81BE01695C7F4FCE01C1960E9438
:10075000A118612FCE01C1960E946119BC01CE0182
:1007600089960E94A118BE01675D7F4FCE01C79692
:100770000E94AA18CE0189960E94A417CE01C196A4
:100780000E94A417CE01C7960E946F19072E000C75
:10079000880B990B0E94711D20E030E049EB54E476
:1007A0000E94551E20E030E040E05FE30E94551EAD
:1007B0002FE632E143E85AE30E94551E2B013C012B
:1007C00022E0BC01A201CE01C1960E94C5186BE6D1
:1007D00070E0CE0189960E941618BE016F5C7F4FB3
:1007E000CE0189960E94341963E770E00E94471990
:1007F000BC0188E993E00E94E016CE0189960E9430
:10080000A417CE01C1960E94A417A89520E030E05D
:1008100042E053E4C301B2010E94481E87FD1FC09D
:10082000CE01C7960E94A417C301B201ED960FB680
:10083000F894DEBF0FBECDBFDF91CF911F910F9116
:10084000FF90EF90DF90CF90BF90AF909F908F90F0
:100850007F906F905F904F903F902F900895CE01C2
:10086000C7960E94A417E0CFCF93DF93C82FD62F4F
:100870008CE591E00E94C20160E08EE00E94B31A14
:10088000CF71C0649C2F8D2F0E94DC0161E08EE04F
:100890000E94B31A8091B503882321F0DF91CF9194
:1008A0000C94B501DF91CF9108950F931F9369E7E1
:1008B00070E08DEA93E00E94161840E068E088E955
:1008C00093E00E94021240E06BE083E893E00E9414
:1008D000021200E012E12AE730E045E16DE082E338
:1008E00091E00E949F0D1F910F91089583E893E07E
:1008F0000E94D81188E993E00E94D8118DEA93E014
:100900000C94A4174F925F926F927F928F929F9256
:10091000AF92BF92CF92DF92EF92FF920F931F930D
:10092000CF93DF9300D000D0CDB7DEB768E687EB7A
:1009300093E00E9432136BE370E087EB93E00E9438
:10094000F40160E087EB93E00E943C1321E030E08B
:100950004EE050E068E670E087EB93E00E94B2134F
:1009600087EB93E00E946B12898387EB93E00E94F0
:100970006B1220E03981822B932B9093BD018093E1
:10098000BC0187EB93E00E946B12898387EB93E0B5
:100990000E946B1220E03981822B932B9093BB0134
:1009A0008093BA0187EB93E00E946B12898387EBF7
:1009B00093E00E946B1220E03981822B932B90935D
:1009C000B9018093B801A895E0906600F0906700A7
:1009D00010E000E0209168003091690050E040E0B4
:1009E0006091BC017091BD01072E000C880B990B22
:1009F0001F921F921F92EAE5EF93E6EAAE2EBB2408
:100A0000BA94CB2CDB2C0E94621769837A838B8388
:100A10009C83E0906600F090670010E000E0209179
:100A200068003091690050E040E06091BA01709137
:100A3000BB01072E000C880B990B1F921F921F926F
:100A4000EAE5EF930E9462172B01E0906600F090B8
:100A5000670010E000E0209168003091690050E0EC
:100A600040E06091B8017091B901072E000C880B2D
:100A7000990B1F921F921F92EAE5EF930E94621753
:100A8000719561957109072E000C880B990B0E94D6
:100A9000711D6B017C016627772764197509072E84
:100AA000000C880B990B0E94711D2B013C01A701C2
:100AB00096010E94631C2BED3FE049E450E40E9444
:100AC000E41B21EE3EE245E652E40E94551E9B01E6
:100AD000AC016091C7017091C8018091C9019091EA
:100AE000CA010E94E31B4B015C018092D3019092EA
:100AF000D401A092D501B092D60169817A81719515
:100B000061957109072E000C880B990B0E94711DCD
:100B100069837A838B839C83A70196010E94631C5F
:100B20002BED3FE049E450E40E94E41B21EE3EE25D
:100B300045E652E40E94551E9B01AC016091C30141
:100B40007091C4018091C5019091C6010E94E31B80
:100B50006B017C01C092CF01D092D001E092D10113
:100B6000F092D20129813A814B815C81C301B201AB
:100B70000E94631C2BED3FE049E450E40E94E41B1B
:100B800021EE3EE245E652E40E94551E9B01AC0177
:100B90006091BF017091C0018091C1019091C2012B
:100BA0000E94E31B2B013C014092CB015092CC01EF
:100BB0006092CD017092CE010FB6F894DEBF0FBEE9
:100BC000CDBF20E030E0A901C501B4010E94C21CE4
:100BD00087FF0CC0B7FAB094B7F8B0948092D301F5
:100BE0009092D401A092D501B092D60120E030E0DD
:100BF000A901C701B6010E94C21C87FF0CC0F7FA09
:100C0000F094F7F8F094C092CF01D092D001E09226
:100C1000D101F092D20120E030E0A901C301B2017C
:100C20000E94C21C87FF0CC077FA709477F870940A
:100C30004092CB015092CC016092CD017092CE01D6
:100C4000A8950F900F900F900F90DF91CF911F916B
:100C50000F91FF90EF90DF90CF90BF90AF909F905B
:100C60008F907F906F905F904F9008954F925F921A
:100C70006F927F928F929F92AF92BF92CF92DF92AC
:100C8000EF92FF920F931F93CF93DF9300D000D08A
:100C9000CDB7DEB7A89563ED71E088E993E00E94D7
:100CA000CE1666EB71E088E993E00E94CE166CE800
:100CB00071E088E993E00E94CE1668E687EB93E046
:100CC0000E9432136BE370E087EB93E00E94F40123
:100CD00060E087EB93E00E943C1321E030E04EE0BF
:100CE00050E068E670E087EB93E00E94B21387EB78
:100CF00093E00E946B12898387EB93E00E946B1252
:100D000020E03981822B932B9093BD018093BC010D
:100D100087EB93E00E946B12898387EB93E00E943C
:100D20006B1220E03981822B932B9093BB0180932F
:100D3000BA0187EB93E00E946B12898387EB93E003
:100D40000E946B1220E03981822B932B9093B90182
:100D50008093B801E0906600F090670010E000E03A
:100D6000209168003091690050E040E06091BC0142
:100D70007091BD01072E000C880B990B1F921F92DA
:100D80001F92EAE5EF93E6EAAE2EBB24BA94CB2C91
:100D9000DB2C0E9462172B01E0906600F090670048
:100DA00010E000E0209168003091690050E040E0E0
:100DB0006091BA017091BB01072E000C880B990B52
:100DC0001F921F921F92EAE5EF930E9462176983B8
:100DD0007A838B839C83E0906600F090670010E03C
:100DE00000E0209168003091690050E040E060919F
:100DF000B8017091B901072E000C880B990B1F9256
:100E00001F921F92EAE5EF930E946217A8957195D1
:100E100061957109072E000C880B990B0E94711DBA
:100E20006B017C0169817A81719561957109072E49
:100E3000000C880B990B0E94711D4B015C01A701EE
:100E400096010E94631C2BED3FE049E450E40E94B0
:100E5000E41B21EE3EE245E652E40E94551E6093FB
:100E6000C7017093C8018093C9019093CA01662796
:100E7000772764197509072E000C880B990B0E94BF
:100E8000711D2B013C01A70196010E94631C2BEDF3
:100E90003FE049E450E40E94E41B21EE3EE245E6D7
:100EA00052E40E94551E6093C3017093C401809365
:100EB000C5019093C601A3019201C501B4010E942E
:100EC000631C2BED3FE049E450E40E94E41B21EE5B
:100ED0003EE245E652E40E94551E6093BF017093C6
:100EE000C0018093C1019093C2010FB6F894DEBF98
:100EF0000FBECDBF68EE73E080E090E00F900F90E2
:100F00000F900F90DF91CF911F910F91FF90EF9075
:100F1000DF90CF90BF90AF909F908F907F906F9019
:100F20005F904F900C94061A0F9388E19FE00FB6E4
:100F3000F894A89581BD0FBE91BDA89561E08EE1A2
:100F40000E94771A87EB93E00E94201368E687EBF4
:100F500093E00E943213A8956BE670E087EB93E074
:100F60000E94F40170E060E087EB93E00E94F401DE
:100F700061E087EB93E00E943C13A89540E855E2BE
:100F800060E070E088E993E00E941A12A8956CE591
:100F900072E088E993E00E94CE16A89540E855E2F9
:100FA00060E070E083E893E00E941A120E9432121F
:100FB00087EB93E00E94201360E472E088E993E0FD
:100FC0000E94CE1682E391E00E940B1081110CC0AA
:100FD00069E272E088E993E00E94CE1668EE73E061
:100FE00080E090E00E94061A60E08FE10E94771A8C
:100FF00002E021E041E06AE082E391E00E94F1102A
:10100000811106C06DE072E088E993E00E94CE167F
:1010100061E08CE00E94771A61E082E10E94771A19
:1010200062E087E10E94771A61E08EE00E94771A01
:1010300061E083E10E94771A61E08CE00E94B31ABC
:1010400061E082E10E94B31A6CE070E080E090E021
:101050000E94061A60E082E10E94B31A60E084E117
:101060000E94B31A61E083E10E94B31A6FE180E04D
:101070000E94340461E481E00E94340461E481E070
:101080000E94340462E082E00E94340460E083E065
:101090000E9434046EE184E00E94340460E885E03C
:1010A0000E9434046EE186E00E94340460E087E030
:1010B0000E94340463E388E00E94340466E089E01F
:1010C0000E9434046FE180E00E943404A8952091CE
:1010D0006A0030E0E3EFF1E090E080E082179307F0
:1010E00034F411921192119211920196F7CF0E944D
:1010F0003606A8950F9108958F929F92AF92BF9256
:10110000CF92DF92EF92FF921F93CF93DF93CDB7F1
:10111000DEB7A895ECE4F1E014E6DF011D921A9524
:10112000E9F7A895A6E7B0E0BF93AF939F928F929F
:10113000BF92AF92DF92CF92FF92EF923F932F93A5
:101140003F932F935F934F932AE730E03F932F9382
:101150009F938F9389E890E09F938F937F936F93F2
:1011600083E990E09F938F938FE990E09F938F9313
:10117000FF93EF930E943123A89567E871E088E917
:1011800093E00E949016A8956CE471E088E993E0E2
:101190000E94C21661E871E088E993E00E9490160F
:1011A0000E94D419AB01BC012AE030E088E993E049
:1011B0000E945517A8956CE771E088E993E00E94BA
:1011C000CE16A8950FB6F894DEBF0FBECDBF10E0C7
:1011D0008CE4E82E81E0F82ED7010D900020E9F78D
:1011E0009D012D543140812F90E08217930750F4D8
:1011F000845B9E4FFC01608183E893E00E9476113E
:101200001F5FEACFDF91CF911F91FF90EF90DF90AA
:10121000CF90BF90AF909F908F9008954F925F9224
:101220006F927F928F929F92AF92BF92CF92DF92F6
:10123000EF92FF920F931F93CF93DF93CDB7DEB75B
:1012400068970FB6F894DEBF0FBECDBFA8950E9479
:101250008204A895A89510E080916A00811760F13A
:101260000E94CC026B017C0120E030E0A9010E94C9
:10127000481E20E030E040E05FE387FD18C0C70172
:10128000B6010E94E41B0E94391D44E0149F9001A6
:101290001124D901AD50BE4F7D010E94711DF7018F
:1012A0006083718382839383A8951F5FD5CFC70125
:1012B000B6010E94E31BE7CFA89520E030E040E0B4
:1012C00050E460916A0083EF91E00E94FB016B01A2
:1012D0007C01A89520E030E042E852E40E94481EDC
:1012E00018169CF5C092DF01D092E001E092E10176
:1012F000F092E2016DEF71E088E993E00E949016B0
:101300004091DF015091E0016091E1017091E201B3
:1013100022E0CE0101960E94C518BE016F5F7F4F8B
:1013200088E993E00E94E016CE0101960E94A4177E
:101330001091BE01123009F4C0C108F016C111238A
:1013400009F46BC1113009F47AC1A89520E030E0AE
:1013500040E251E46091E3017091E4018091E50184
:101360009091E6010E94551E6093D7017093D801B9
:101370008093D9019093DA0120E030E040E251E41B
:101380006091DF017091E0018091E1019091E201B3
:101390000E94551E6093DB017093DC018093DD0198
:1013A0009093DE010E94D4196093B0017093B10153
:1013B0008093B2019093B301A8958091B001909170
:1013C000B101A091B201B091B3014091B40150912B
:1013D000B5016091B6017091B701841B950BA60B06
:1013E000B70B803D9740A105B10508F49BC0A895B7
:1013F0008091B0019091B101A091B201B091B3017F
:101400008093B4019093B501A093B601B093B70156
:101410004091D7015091D8016091D9017091DA01C2
:1014200022E0CE0107960E94C51866ED70E0CE015D
:1014300001960E941618BE01695F7F4FCE0101968A
:101440000E94341963E770E00E944719BC0188E9E3
:1014500093E00E94E016CE0101960E94A417CE01EF
:1014600007960E94A41762EE70E088E993E00E945C
:10147000F2166091CB017091CC018091CD019091D9
:10148000CE010E94391D6D877E878F87988B609172
:10149000CF017091D0018091D1019091D2010E9431
:1014A000391D698B7A8B8B8B9C8B6091D3017091EA
:1014B000D4018091D5019091D6010E94391D6D8B88
:1014C0007E8B8F8B988F6091D7017091D80180911E
:1014D000D9019091DA010E94401D2B016091DB013E
:1014E0007091DC018091DD019091DE010E94401D30
:1014F000CB012FE1822E912CB12CA12CD12CC12C0F
:10150000F12CE12C0D851E8529893A894D895E894A
:10151000B2010E947C0860EF70E088E993E00E94CD
:10152000F216A895A895E3EFF1E080E991E0DF01DC
:101530009C011D9221503040E1F7A89568960FB6A6
:10154000F894DEBF0FBECDBFDF91CF911F910F91F9
:10155000FF90EF90DF90CF90BF90AF909F908F90D3
:101560007F906F905F904F900895133009F418C1E9
:10157000143009F0EACEA895C090E301D090E401C0
:10158000E090E501F090E6014090DF015090E0012D
:101590006090E1017090E20120E030E040E050E432
:1015A000C701B6010E94E31BA30192010E94C21C65
:1015B00018160CF4B2C120E030E040E050E4C7015E
:1015C000B6010E94E41B9B01AC01C301B2010E9461
:1015D000C21C18160CF4A1C11092E7011092E80188
:1015E0001092E9011092EA011092EB011092EC01C5
:1015F0001092ED011092EE011092EF011092F001A5
:101600001092F1011092F2011092F3011092F40184
:101610001092F5011092F60110C08091DF019091B7
:10162000E001A091E101B091E2018093E301909388
:10163000E401A093E501B093E60181E03BC0A895E9
:101640008090E3019090E401A090E501B090E60164
:10165000C090DF01D090E001E090E101F090E20164
:1016600020E030E040E050E4C501B4010E94E31BFB
:10167000A70196010E94C21C18169CF020E030E0E1
:1016800040E050E4C501B4010E94E41B9B01AC01A1
:10169000C701B6010E94C21C18161CF01093BE01AF
:1016A00054CEC092E701D092E801E092E901F092B5
:1016B000EA0182E08093BE0148CEA895C090E30184
:1016C000D090E401E090E501F090E6014090DF0168
:1016D0005090E0016090E1017090E20120E030E084
:1016E00040E050E4C701B6010E94E31BA301920150
:1016F0000E94C21C1816CCF020E030E040E050E41C
:10170000C701B6010E94E41B9B01AC01C301B201F9
:101710000E94C21C18164CF01092E7011092E801CA
:101720001092E9011092EA0188CFC090E701D090B1
:10173000E801E090E901F090EA0120E030E040E0CB
:1017400050E4C701B6010E94E31B9B01AC01C30139
:10175000B2010E94481E87FD1AC020E030E040E040
:1017600050E4C701B6010E94E41B9B01AC01C30118
:10177000B2010E94C21C181654F04092EB01509224
:10178000EC016092ED017092EE0183E093CF409204
:10179000E7015092E8016092E9017092EA0189CF75
:1017A000A8958090E3019090E401A090E501B090AD
:1017B000E601C090DF01D090E001E090E101F090FF
:1017C000E20120E030E040E050E4C501B4010E94B5
:1017D000E31BA70196010E94C21C181614F120E019
:1017E00030E040E050E4C501B4010E94E41B9B01DD
:1017F000AC01C701B6010E94C21C181694F0A8954E
:101800001092E7011092E8011092E9011092EA01AA
:101810001092EB011092EC011092ED011092EE018A
:101820000CCFA895C090E701D090E801E090E901C5
:10183000F090EA014090DF015090E0016090E101FA
:101840007090E20120E030E040E050E4C701B601D2
:101850000E94E31BA30192010E94C21C18160CF403
:1018600053C020E030E040E050E4C701B6010E94E0
:10187000E41B9B01AC01C301B2010E94C21C1816FB
:101880000CF442C08090EB019090EC01A090ED012F
:10189000B090EE0120E030E040E050E4C501B4013A
:1018A0000E94E31B9B01AC01C301B2010E94481ED0
:1018B00087FD2AC020E030E040E050E4C501B401DB
:1018C0000E94E41B9B01AC01C301B2010E94C21C37
:1018D0001816D4F0A5019401C701B6010E94E41BBB
:1018E000A30192010E94E41B20E030E040E450E4B8
:1018F0000E94C71C6093EF017093F0018093F10187
:101900009093F20184E0D6CE4092F3015092F4011C
:101910006092F5017092F601F5CFC090E701D0908A
:10192000E801E090E901F090EA0120E030E040E0D9
:1019300050E4C701B6010E94E31B9B01AC01C30147
:10194000B2010E94481E87FD98C020E030E040E0D0
:1019500050E4C701B6010E94E41B9B01AC01C30126
:10196000B2010E94C21C18160CF487C0C090EB0193
:10197000D090EC01E090ED01F090EE0120E030E03D
:1019800040E050E4C701B6010E94E31B9B01AC019B
:10199000C301B2010E94481E87FD6FC020E030E005
:1019A00040E050E4C701B6010E94E41B9B01AC017A
:1019B000C301B2010E94C21C18160CF45EC0C09094
:1019C000EF01D090F001E090F101F090F20120E001
:1019D00030E040E050E4C701B6010E94E31B9B01E8
:1019E000AC01C301B2010E94481E87FD46C020E041
:1019F00030E040E050E4C701B6010E94E41B9B01C7
:101A0000AC01C301B2010E94C21C1816B4F1A89522
:101A10002091EB013091EC014091ED015091EE01EC
:101A20006091E7017091E8018091E9019091EA01EC
:101A30000E94E41B2091EF013091F0014091F101EF
:101A40005091F2010E94E41B2091DF013091E001EE
:101A50004091E1015091E2010E94E41B20E030E05E
:101A600040E85EE30E94551E6093E3017093E40139
:101A70008093E5019093E601E0CDC090F301D09012
:101A8000F401E090F501F090F60120E030E040E054
:101A900050E4C701B6010E94E31B9B01AC01C301E6
:101AA000B2010E94481E87FD50CC20E030E040E0AB
:101AB00050E4C701B6010E94E41B9B01AC01C301C5
:101AC000B2010E94C21C18160CF43FCCA89580915C
:101AD000F3019091F401A091F501B091F60180938A
:101AE000E7019093E801A093E901B093EA018091A6
:101AF000DF019091E001A091E101B091E2018093BA
:101B0000EB019093EC01A093ED01B093EE013DCE7B
:101B10008FB90000779BFECF8FB108958091B503F8
:101B2000882361F09FB7F8942091B5038091B303A7
:101B3000213019F48BBF9FBF08958FBF0895AF92D6
:101B4000BF92CF92DF92EF92FF920F931F93CF93AA
:101B5000DF93EC016883498358016901E12CF12C82
:101B600000E010E020E030E145EA54ED68EE70E07E
:101B700080E090E00E94D81F2A833B834C835D83E2
:101B80001A8A1B8A1C8A1D8A1E8A1F8A188E198E21
:101B9000DF91CF911F910F91FF90EF90DF90CF9049
:101BA000BF90AF9008951F93CF93DF93EC01162F52
:101BB00080E591E00E94C20160E089810E94B31A31
:101BC000812F8F710E94880D80E00E94880D182F50
:101BD00061E089810E94B31A0E948E0D812FDF91EE
:101BE000CF911F910895CF92DF92EF92FF921F93B2
:101BF000CF93DF93EC01162F80E591E00E94C201A4
:101C000060E089810E94B31A812F8F710E94880D34
:101C100080E00E94880D90E0B0E0A0E0CC24D82EB7
:101C2000E92EFA2E80E00E94880DC82AFE2CED2CA9
:101C3000DC2CCC2480E00E94880DC82A61E08981D8
:101C40000E94B31A0E948E0DC701B601DF91CF9199
:101C50001F91FF90EF90DF90CF9008952F923F92C9
:101C60004F925F926F927F928F929F92AF92BF92AC
:101C7000CF92DF92EF92FF920F931F93CF93DF9358
:101C8000CDB7DEB764970FB6F894DEBF0FBECDBFF9
:101C9000FA01108211821282138214821582168236
:101CA0001782DC0119962C91261708F48CC04A0182
:101CB00069839C8B8B8BFC012285338544855585FC
:101CC0006685778580899189A0E00E94C42009F00B
:101CD00072C06BE1CF010E94F30D69877A878B8711
:101CE0009C876CE18B899C890E94F30D6D877E87B0
:101CF0008F87988BEB89FC8982819381A481B58140
:101D00009C01AD0160E070E080E090E008E20E949C
:101D10007C20322E432E542E652E762E272E898B34
:101D20009A8B8D859E85AF85B889E984FA840B8569
:101D30001C858E199F09A00BB10B9C01AD0160E0C1
:101D400070E080E090E004E10E947C20E681E150B8
:101D5000FF0B1F2F110F110B5F01C12ED12EE12E92
:101D6000F12E012F0E94A71F59016A017B018C01EE
:101D7000232D342D452D562D672D722D89899A8955
:101D80000E94D81FAB89BC891A962C931A971B9670
:101D90003C931B971C964C931C971D965C931D9728
:101DA0001E966C931E971F967C931F9750968C934C
:101DB000509751969C93EB89FC8980858130E9F09E
:101DC000823009F474C080E064960FB6F894DEBFE8
:101DD0000FBECDBFDF91CF911F910F91FF90EF907C
:101DE000DF90CF90BF90AF909F908F907F906F903B
:101DF0005F904F903F902F9008956981695F660FC3
:101E00008B899C890E94F30D7B018C0120E030E0DE
:101E1000A9016983FA828B831C832D833E834F83C0
:101E20005887AB89BC891A96AC901A971B96BC90C0
:101E30001B971C96CC901C971D96DC901D971E96A8
:101E4000EC901E971F96FC901F9750960C91509700
:101E500051961C9129813A814B815C8160E070E050
:101E600080E090E00E94221F04E10E949520F4018E
:101E7000208331834283538364837583868397836E
:101E8000F401208131814281538164817581868191
:101E90009781AFEF0E94C42041F410821182128218
:101EA0001382148215821682178281E08DCF60E141
:101EB0008B899C890E94F30D6B017C011981185F4D
:101EC000110F612F8B899C890E94F30D69837A839E
:101ED0008B839C836FEF610F8B899C890E94F30D2C
:101EE0002B013C01560149815A816B817C819A0109
:101EF000AB0160E070E0CB0129833A834B835C83C4
:101F00006D837E838F8398879501A70160E070E0E1
:101F100080E090E0A980BA80CB80DC80E12CF12CBD
:101F200000E010E00E94BB20AB89BC891A96AC90FF
:101F30001A971B96BC901B971C96CC901C971D96CD
:101F4000DC901D971E96EC901E971F96FC901F9795
:101F500050960C91509751961C910E94221F04E1BB
:101F60000E94952059016A017B011C01C301B20145
:101F7000EB89FC8922813381448155810E947A1F3B
:101F800029873983B42FA52FF62FE72F8C019501D0
:101F9000A601B701C101A984B980CB2EDA2EEF2E9C
:101FA000FE2E0E94B220D4012C9311963C931197DF
:101FB00012964C93129713965C93139714966C9306
:101FC000149715967C93159716968C9316971796DB
:101FD0009C9356CF0F931F93CF93DF938C01C62F03
:101FE000D42F80E591E00E94C20160E0F801818178
:101FF0000E94B31ACF71C0649C2F8D2F0E94DC0108
:1020000061E0F80181810E94B31ADF91CF911F91A5
:102010000F910C948E0DCF93DF93EC0160E08881DB
:102020000E94B31A61E088810E94771A65E070E02F
:1020300080E090E00E94061A61E088810E94B31A55
:1020400062E070E080E090E00E94061A61E0898121
:102050000E94B31A61E089810E94771A0E943212AD
:1020600061E0CE010E94D30D803421F080E0DF9149
:10207000CF91089563E0CE010E94D30D8730B1F770
:1020800047E063E0CE010E94EA0F81E0F0CF2F929B
:102090003F924F925F926F927F928F929F92AF92F8
:1020A000BF92CF92DF92EF92FF920F931F93CF9345
:1020B000DF9300D000D0CDB7DEB79C838B831801AF
:1020C00029013A0169837A839801A201B3018981C8
:1020D0009A81A0E00E94C42009F47DC0EB81FC81BC
:1020E0008085813009F05CC080E9A82EB12CC12C1C
:1020F000D12CE12CF12C00E010E089810E94221FFC
:10210000E0E4AE2EF2E4BF2EAFE0CA2E0E94D81F4C
:1021100049015A01FFEF8F169F06A104B10408F090
:102120005AC0022F492D1FEFFF24FA9464E08B81DF
:102130009C810E94EA0F402F65E08B819C810E9468
:10214000EA0F4F2D66E08B819C810E94EA0F412FA0
:1021500067E08B819C810E94EA0FEB81FC81228ADF
:10216000338A448A558A668A778A8981808F8A81F0
:10217000818F0F900F900F900F90DF91CF911F9153
:102180000F91FF90EF90DF90CF90BF90AF909F9016
:102190008F907F906F905F904F903F902F90089519
:1021A000EB81FC8102811381248135815801690111
:1021B000E12CF12C00E010E0910189819A810E94CC
:1021C000D81F49015A01122FF92CFFEF8F169F06D5
:1021D000A104B10418F01FEFFF24FA940FEF4FEFA2
:1021E000A5CFCF92DF92EF92FF920F931F93CF93E1
:1021F000DF93EC01623099F06A3009F44BC064312E
:1022000009F44BC0683209F44BC080E0DF91CF91F4
:102210001F910F91FF90EF90DF90CF900895E12CE8
:102220006E83D12CC12C81E090E050E0FC010C2C9D
:1022300002C0EE0FFF1F0A94E2F7E417F50799F5C5
:1022400083E0CC0CDD1C8A95E1F7FF24FA94F20EB2
:1022500034E03F15D0F229879FEF900F9230A8F617
:102260000887990F9F830A891B892C893D894E898C
:102270005F89688D798DCE010E9447108F818160C2
:102280008F834F2D4E294C2961E0CE010E94EA0F29
:1022900081E0BCCF50E4E52EC3CF30E8E32EC0CFC1
:1022A00090ECE92EBDCF3FEFC31AD30A38E0C31636
:1022B000D10409F0BBCFA9CFCF93DF93EC014FE15D
:1022C00062E00E94EA0F1A861B861C861D861E8607
:1022D0001F86188A198A4F8160E0CE01DF91CF9165
:1022E0000C94EA0F90E080E008950895EF92FF9239
:1022F0000F931F93CF93DF93DC015296ED90FC90E8
:102300005397E114F10479F481E090E013969C93E3
:102310008E93129790E080E0DF91CF911F910F9103
:10232000FF90EF9008951D96ED91FC911E971C96DD
:102330008C911C97982F90950FB754962C91549789
:10234000122F127021FD6095F8942081112319F14C
:10235000282B2083E7012197F1F728E0462F50E052
:10236000308160FF1AC0382B3083E7012197F1F7E5
:10237000BA0175956795215089F7112381F0808105
:10238000892380830FBF52968D919C910197F1F71D
:1023900081E090E0C1CF2923DCCF3923E5CF9081C4
:1023A000892BEFCF90E080E008958FEF9FEF0895A5
:1023B00008951F93CF93DF93EC01162F6C896695D8
:1023C000617081E06827812F0E94B31A61E0812F3C
:1023D0000E94771A812F90E0FC01E155FD4FE491B6
:1023E000EC87FC01E153FD4FE491F0E0EE0FFF1F9D
:1023F000E750FD4F859194919E878D87DF91CF9116
:102400001F910895FC011382128288EE93E0A0E0F0
:10241000B0E084839583A683B78380E091E09183C5
:102420008083138A128A848940FB81F9848BCF01CF
:102430000C94D911CF93DF93EC019A01AB0160E8C2
:1024400074E88EE190E00E94F81E2430310538F0E7
:10245000235031093B8B2A8BDF91CF91089521E0E6
:1024600030E0F8CFCF93CFB7F8948091B6038111C5
:1024700023C0E3EDF2E08491E3EBF2E09491E82FE6
:10248000F0E0EE0FFF1FED5FFC4FA591B491EC91D2
:10249000E92321F461E084E00E94B31A61E084E062
:1024A0000E94771A6C9A6E9A61E087E00E94771A10
:1024B00061E085E00E94771A8091B6038F5F809378
:1024C000B603CFBFCF9108958091EB039091EC03B9
:1024D000891B990B08959091EC038091EB032FEFEA
:1024E0003FEF981748F4E92FF0E0E351FC4F2081CB
:1024F00030E09F5F9093EC03C9010895E091EC03F5
:102500008091EB03E81730F4F0E0E351FC4F808159
:1025100090E008958FEF9FEF08950895CF93DF9394
:10252000EC01E091C303F091C4033097F1F0909176
:10253000EC038091EB039817C0F090E0292F30E076
:102540002617370754F4DE01A20FB31F4C91235115
:102550003C4FD9014C939F5FF1CF1092EC036093F5
:10256000EB03CB01DF91CF910994DF91CF910895D7
:10257000E091C503F091C603309729F01092C9038A
:102580001092C80309940895CF93DF931F92CDB79B
:10259000DEB769832091C7032223F9F02091C80395
:1025A000203258F021E030E0FC013383228390E0B8
:1025B00080E00F90DF91CF9108958091C903E82FBB
:1025C000F0E0E653FC4F998190838F5F8093C903BD
:1025D0008093C80381E090E0ECCF61E0CE010196EA
:1025E0000E946514F7CFCF92DF92EF92FF920F9384
:1025F0001F93CF93DF937C01CB018A012091C70306
:10260000222389F0EB016B01C40ED51ECC15DD052C
:1026100069F06991D701ED91FC910190F081E02D75
:10262000C7010995F3CF642F0E946514C801DF919B
:10263000CF911F910F91FF90EF90DF90CF90089571
:102640001092EC031092EB031092C9031092C8038E
:102650000E94C51388EB92E10E9491148EE892E1EA
:102660000C948C1481E08093C7036093EA0310926A
:10267000C9031092C80308950F93062F21E04091DB
:10268000C8036AEC73E08091EA030E941814109268
:10269000C9031092C8031092C7030F9108954F9277
:1026A0005F926F927F92AF92BF92CF92EF92FF9222
:1026B0000F931F93CF93DF935C01F62ED42F280145
:1026C0003901EE2019F10E943213CE2DC43008F0EA
:1026D000C3E0C150B8F028E0C29FC0011124A3019B
:1026E000920104C056954795379527958A95D2F75C
:1026F000B901D501ED91FC910190F081E02DC5016A
:102700000995E7CF60E0C5010E943C134D2FD132FF
:1027100008F040E22C2D6DEE73E08F2D0E94DB134C
:102720001092EC038093EB03DF91CF911F910F91F7
:10273000FF90EF90CF90BF90AF907F906F905F90A1
:102740004F900895CF92EF920F931F93C22EE12CDA
:1027500000E010E098010E944F131F910F91EF903D
:10276000CF9008950C94A213E7EBF3E0138212824A
:1027700088EE93E0A0E0B0E084839583A683B783DE
:1027800082E191E091838083089510925C0481E05E
:1027900080935A041092590461E081E10E94B31AB7
:1027A00061E080E10E94B31A0898099880E280B93C
:1027B00085E486BF08954132C8F590915C0491117B
:1027C000FCCF91E090935C0420935A042FEF209368
:1027D0000D04709354046093530410925204240F18
:1027E0002093510490935B0490915B04880F892B94
:1027F00080935B04809159048130B1F410925904A4
:1028000080915B0483B906B603FCFACF85EC86BFE2
:1028100080915C048130E1F380915204841710F4BC
:1028200040915204842F089585EEF1CF40E0FACF15
:102830000F93413208F041C090915C049111FCCF9C
:1028400092E090935C0400935A049FEF90930D04E0
:1028500070935404609353041092520440935104B3
:1028600010925B0490915B04880F892B80935B042A
:10287000809159048130F9F41092590480915B04DD
:1028800083B906B603FCFACF85EC86BF222321F07C
:1028900080915C048230D1F380910D048F3F79F0F8
:1028A00080910D04803269F080910D04803359F0DD
:1028B00084E00F91089585EEE8CF81E0FACF80E0C3
:1028C000F8CF82E0F6CF83E0F4CF20912F04260FDB
:1028D0003327331F21323105ECF420915C04FC01D5
:1028E00090E080E0243069F082E00895A0912F0408
:1028F0002191AC014F5C5B4FA40FB52FB11D2C9300
:102900000196861798F380912F04680F60932F0427
:1029100080E0089581E008959093560480935504D3
:1029200008959093580480935704089585ED86BFC9
:1029300006B604FCFDCF10925C04089585EC86BFBA
:1029400010925C0408951F920F920FB60F921124FB
:102950002F933F934F935F936F937F938F939F93A7
:10296000AF93BF93EF93FF9381B1887F803609F4D3
:102970004CC008F03FC0883209F4A4C018F580317B
:1029800009F49AC0B8F4882309F4FEC0883009F429
:1029900093C0FF91EF91BF91AF919F918F917F91E4
:1029A0006F915F914F913F912F910F900FBE0F90BC
:1029B0001F901895883109F485C0803251F78093B3
:1029C0000D0415C0803409F4A1C048F48033B9F374
:1029D0008833F9F680930D040E949E14DACF803577
:1029E00009F485C0883509F499C0883491F60E94AD
:1029F0009614CFCF883909F48FC030F5883729F085
:102A000050F4883611F0803721F683E080935C041F
:102A100010920E0454C0883809F47EC0803919F031
:102A2000803809F0B6CF80910E04803208F074C06F
:102A3000E0910E0481E08E0F80930E0483B1F0E0EC
:102A4000E15FFB4F80833BC0803B39F0E0F4803A8C
:102A500009F47FC0883A09F09CCF84E080935C043D
:102A60001092300410922F04E0915704F091580412
:102A7000099580912F0481110FC081E080932F046C
:102A80001092310409C0803C09F47CC0883C09F4F0
:102A900079C0883B09F07DCFE091300481E08E0F52
:102AA00080933004F0E0EF5CFB4F808183B990911C
:102AB000300480912F042EC080915B0483B985EC93
:102AC00086BF67CF90915204809151049817A8F562
:102AD0008091530490915404E091520421E02E0F10
:102AE00020935204E80FF92FF11D8081E7CF209148
:102AF000530430915404E091520481E08E0F80938E
:102B0000520483B1E20FF32FF11D808390915204A0
:102B100080915104981798F285E8D2CF2091530400
:102B200030915404E091520481E08E0F809352045E
:102B300083B1E20FF32FF11D808380915A0481113C
:102B400056CF81E08093590484EA86BF10925C04DA
:102B500020CF0E949E1480910E04803230F4E091C8
:102B60000E04F0E0E15FFB4F108260910E0470E014
:102B7000E0915504F09156048FE094E0099510928D
:102B80000E0407CF85ECE1CF10920D0430CF1F92D9
:102B90000F920FB60F9211242F938F939F93EF9361
:102BA000FF93E0916D04F0916E048081E0917304D5
:102BB000F091740482FD1BC09081809176048F5F38
:102BC0008F7320917704821741F0E0917604F0E052
:102BD000E35AFB4F958F80937604FF91EF919F917D
:102BE0008F912F910F900FBE0F901F90189580819D
:102BF000F4CF1F920F920FB60F9211242F933F9391
:102C00004F935F936F937F938F939F93AF93BF93F4
:102C1000EF93FF938DE594E00E94551BFF91EF9198
:102C2000BF91AF919F918F917F916F915F914F91E4
:102C30003F912F910F900FBE0F901F9018958DE52B
:102C400094E00E940A1B21E0892B09F420E0822FE6
:102C50000895EDE5F4E01382128288EE93E0A0E09F
:102C6000B0E084839583A683B78384E291E0918367
:102C7000808380E490E09587848729E230E037877D
:102C800026872BE230E0318B208B2AE230E0338B39
:102C9000228B958B848B8CE290E0978B868B118EA8
:102CA000128E138E148E0895AF92BF92CF92DF9240
:102CB000EF92FF920F931F93CF93DF936C017B01F1
:102CC0008B01040F151FEB015E01AE18BF08C01782
:102CD000D10759F06991D601ED91FC910190F081F5
:102CE000E02DC6010995892B79F7C501DF91CF91B8
:102CF0001F910F91FF90EF90DF90CF90BF90AF901A
:102D00000895FB0101900020E9F73197AF01461BC0
:102D1000570BDC01ED91FC910280F381E02D0994C9
:102D2000EF92FF920F931F93CF93DF938C017B0160
:102D3000D0E0C0E0F701EC0FFD1F6491662361F065
:102D4000D801ED91FC910190F081E02DC801099529
:102D5000892B11F02196EECFCE01DF91CF911F91FB
:102D60000F91FF90EF900895DB0114964D915C91C7
:102D700015976D917C91DC01ED91FC910280F381BE
:102D8000E02D09946115710511F00C94811690E005
:102D900080E0089567E770E00C9481160F931F930D
:102DA000CF93DF93EC010E9490168C01CE010E941C
:102DB000CA16800F911FDF91CF911F910F91089537
:102DC0000F931F93CF93DF93EC010E94B4168C01F5
:102DD000CE010E94CA16800F911FDF91CF911F91E3
:102DE0000F9108950F931F93CF93DF938C01D0E041
:102DF000C0E06115710519F00E948116EC01C8014F
:102E00000E94CA168C0F9D1FDF91CF911F910F91C9
:102E100008958F929F92AF92BF92EF92FF920F937D
:102E20001F93CF93DF93CDB7DEB7A1970FB6F8947A
:102E3000DEBF0FBECDBF7C01FA01CB0119A222304B
:102E400008F42AE08E010F5D1F4F822E912CB12CC9
:102E5000A12CBF01A50194010E94D61EF901CA014F
:102E60006A300CF5605DD8016E938D01232B242B05
:102E7000252B79F790E080E0109721F0BD01C70184
:102E80000E948116A1960FB6F894DEBF0FBECDBF8B
:102E9000DF91CF911F910F91FF90EF90BF90AF9076
:102EA0009F908F900895695CDECF2115310541F424
:102EB000DC01ED91FC910190F081E02D642F0994EB
:102EC0000C9409174F925F926F927F92AF92BF92CC
:102ED000CF92DF92EF92FF920F931F93CF93DF93E6
:102EE000CDB7DEB729013A019B01AC0124193509A0
:102EF0004609570989899A89AB89BC89BC01CD01EA
:102F00006A197B098C099D090E94C61EA8019701B8
:102F100024193509460957090E94F81ECA01B9014A
:102F20006A0D7B1D8C1D9D1DDF91CF911F910F910F
:102F3000FF90EF90DF90CF90BF90AF907F906F9019
:102F40005F904F9008950895FC01808191810097D2
:102F500011F00C949F210895CF93DF93EC018881A9
:102F60009981009711F00E949F21198218821D8279
:102F70001C821B821A82DF91CF9108950F931F93B9
:102F8000CF93DF93EC018B016F5F7F4F8881998135
:102F90000E942822009751F0998388831B830A831B
:102FA00081E0DF91CF911F910F91089580E0F9CFDB
:102FB000CF93DF93EC0188819981892B49F08A8135
:102FC0009B818617970720F081E0DF91CF910895CC
:102FD000CE010E94BE178823C1F38C819D81892B6D
:102FE00099F7E881F9811082EFCFEF92FF920F936A
:102FF0001F93CF93DF93EC017B018A01BA010E94FA
:10300000D81781110BC0CE010E94AC17CE01DF9101
:10301000CF911F910F91FF90EF9008951D830C8326
:10302000B701888199810E941523F0CFFC0111829C
:10303000108213821282158214826115710551F07B
:10304000FB0101900020E9F73197AF01461B570BB8
:103050000C94F5170895FB0101900020E9F73197D2
:10306000AF01461B570B0C94F517CF93DF9300D09D
:10307000CDB7DEB7FC011182108213821282158255
:10308000148269831A82BE016F5F7F4F0E942B18E2
:103090000F900F90DF91CF9108950F931F93CF93CF
:1030A000DF938C01EB01FC0180819181009701F19C
:1030B0006881798161157105C9F023EA37E1232B15
:1030C000A9F0428153812C813D814217530770F052
:1030D0000E9415238C819D81F801958384831D8234
:1030E0001C82DF91CF911F910F9108950E949F2123
:1030F00088819981F801918380838A819B81938360
:1031000082838C819D8195838483198218821B829E
:103110001A82E5CFCF93DF93EC01FB018617970767
:1031200049F0608171816115710541F044815581DB
:103130000E94F517CE01DF91CF9108950E94AC1740
:10314000F9CFFC011182108213821282158214823F
:103150000C948A18CF93DF93EC018617970711F030
:103160000E944D18CE01DF91CF910895CF93DF9348
:10317000EC016115710531F00E942B18CE01DF9131
:10318000CF9108950E94AC17F9CFEF92FF920F9361
:103190001F93CF93DF93CDB7DEB7A1970FB6F89407
:1031A000DEBF0FBECDBF7C01CB01BA01F70111829A
:1031B0001082138212821582148242E0420F8E0125
:1031C0000F5F1F4F0E94E520BC01C7010E94B61887
:1031D000A1960FB6F894DEBF0FBECDBFDF91CF91A1
:1031E0001F910F91FF90EF900895EF92FF920F9330
:1031F0001F93CF93DF936115710541F480E0DF9158
:10320000CF911F910F91FF90EF90089541155105B7
:10321000B1F07B01EC010C811D81040F151FB80179
:103220000E94D817882351F3288139818C819D8190
:10323000B701820F931F0E9415231D830C8381E029
:10324000DECFCF93DF9300D0CDB7DEB769831A828C
:1032500041E050E0BE016F5F7F4F0E94F5180F9074
:103260000F90DF91CF910895CF93DF93EC01FB0195
:1032700044815581608171810E94F518811103C0DC
:10328000CE010E94AC17CE01DF91CF910895CF936C
:10329000DF93EC016115710539F4CE010E94AC1782
:1032A000CE01DF91CF910895FB0101900020E9F755
:1032B0003197AF01461B570B0E94F518882369F31D
:1032C000EFCFCF93DF93EC010E942119811103C04E
:1032D000CE010E94AC17CE01DF91CF910895FC0181
:1032E00080819181009711F00C94E52260E070E0FC
:1032F000CB01089508950E943F1A0E947A190E94F6
:103300009407C7E4DBE10E940E092097E1F30E94D5
:10331000471BF9CF1F920F920FB60F9211242F93D4
:103320003F938F939F93AF93BF938091FF049091AE
:103330000005A0910105B09102053091FE0426E040
:10334000230F2D3768F129E8230F0396A11DB11D26
:103350002093FE048093FF0490930005A093010541
:10336000B09302058091FA049091FB04A091FC04B3
:10337000B091FD040196A11DB11D8093FA049093B4
:10338000FB04A093FC04B093FD04BF91AF919F9107
:103390008F913F912F910F900FBE0F901F90189516
:1033A0000296A11DB11DD4CF2FB7F8946091FF04F0
:1033B0007091000580910105909102052FBF08953D
:1033C0003FB7F8948091FA049091FB04A091FC041B
:1033D000B091FD0422B708B600FE05C02F3F19F0DA
:1033E0000196A11DB11D3FBFBA2FA92F982F882785
:1033F000BC01CD01620F711D811D911D43E0660F5F
:10340000771F881F991F4A95D1F708958F929F9231
:10341000AF92BF92CF92DF92EF92FF926B017C014D
:103420000E94E0194B015C01C114D104E104F104D4
:10343000E9F00E94E21B0E94E019681979098A09E3
:103440009B09683E73408105910570F321E0C21A23
:10345000D108E108F10888EE880E83E0981EA11CCF
:10346000B11CC114D104E104F10429F7FF90EF90DD
:10347000DF90CF90BF90AF909F908F9008957894F9
:1034800083B7836083BF83B7886483BF89B7816054
:1034900089BF82E08EBD8EB581608EBD8FB58160A3
:1034A0008FBD85B5846085BD85B5806485BD86E8A2
:1034B00086B91AB80895843059F028F4813099F00B
:1034C000823089F00895853039F0873041F00895D1
:1034D0008FB58F778FBD08958FB58F7DFBCF85B565
:1034E0008F7D85BD089583B78F7D83BF0895CF936A
:1034F000DF9390E0FC01E155FD4F249181539D4FF6
:10350000FC0184918823C9F090E0880F991FFC0189
:10351000ED5FFC4FA591B491FC01E750FD4FC591C3
:10352000D49161110DC09FB7F8948C91209582239E
:103530008C938881282328839FBFDF91CF910895A2
:10354000623051F49FB7F8943C91822F8095832389
:103550008C93E8812E2BEFCF8FB7F894EC912E2B24
:103560002C938FBFEACF1F93CF93DF93282F30E0A8
:10357000F901E157FD4F8491F901E155FD4FD491D7
:10358000F901E153FD4FC491CC23A9F0162F81110D
:103590000E945B1AEC2FF0E0EE0FFF1FE750FD4F8B
:1035A000A591B4918FB7F894EC91111108C0D09502
:1035B000DE23DC938FBFDF91CF911F910895DE2B27
:1035C000F8CFCF93DF93282F30E0F901E157FD4F7B
:1035D0008491F901E155FD4FD491F901E153FD4F7B
:1035E000C491CC23A1F081110E945B1AEC2FF0E072
:1035F000EE0FFF1FE151FD4FA591B491EC91ED232A
:1036000081E090E009F480E0DF91CF91089580E0BF
:1036100090E0FACFFC01918D228D892F90E0805CA3
:103620009F4F821B91098F7399270895FC01918DFB
:10363000828D981731F0828DE80FF11D858D90E015
:1036400008958FEF9FEF0895FC01918D828D98175B
:1036500061F0A28DAE0FBF2FB11D5D968C91928D42
:103660009F5F9F73928F90E008958FEF9FEF089573
:10367000FC01538D448D252F30E0842F90E0821B78
:10368000930B541710F0CF960895019708958FE18A
:1036900096E1892B49F080E090E0892B29F00E9487
:1036A0001F1681110C9400000895FC01A48DA80F31
:1036B000B92FB11DA35ABF4F2C91848D90E0019674
:1036C0008F739927848FA689B7892C93A089B18994
:1036D0008C9182748C93938D848D981306C002888C
:1036E000F389E02D80818F7D80830895CF93DF93D0
:1036F000EC01888D8823B9F0AA89BB89E889F9890A
:103700008C9185FD03C0808186FD0DC00FB607FC3E
:10371000F7CF8C9185FFF2CF808185FFEDCFCE0171
:103720000E94551BE9CFDF91CF910895EF92FF9250
:103730000F931F93CF93DF93EC0181E0888F9B8DD4
:103740008C8D981319C0E889F989808185FF14C090
:103750009FB7F894EE89FF896083E889F9898081B1
:10376000827480839FBF81E090E0DF91CF911F91B1
:103770000F91FF90EF900895F62E0B8D10E00F5FE4
:103780001F4F0F731127E02E8C8D8E110CC00FB6BA
:1037900007FCFACFE889F989808185FFF5CFCE0152
:1037A0000E94551BF1CFEB8DEC0FFD2FF11DE35A5D
:1037B000FF4FF0829FB7F8940B8FEA89FB898081D5
:1037C0008062CFCF08955058BB27AA270E94FB1BC9
:1037D0000C940E1E0E94001E38F00E94071E20F05E
:1037E00039F49F3F19F426F40C94D61D0EF4E0959D
:1037F000E7FB0C94D01DE92F0E941F1E58F3BA1747
:10380000620773078407950720F079F4A6F50C94F6
:10381000411E0EF4E0950B2EBA2FA02D0B01B9011D
:1038200090010C01CA01A0011124FF27591B99F036
:10383000593F50F4503E68F11A16F040A22F232F42
:10384000342F4427585FF3CF469537952795A79592
:10385000F0405395C9F77EF41F16BA0B620B730B39
:10386000840BBAF09150A1F0FF0FBB1F661F771FAA
:10387000881FC2F70EC0BA0F621F731F841F48F45F
:10388000879577956795B795F7959E3F08F0B0CFE8
:103890009395880F08F09927EE0F979587950895CF
:1038A0000E94001E60F080E891E009F49EEF0E9403
:1038B000071E28F040E851E071F45EEF0CC00C9454
:1038C000D61D0C94411EE92FE0780E941F1E40F384
:1038D000092E052AB1F3261737074807590738F08C
:1038E0000E2E07F8E02569F0E025E0640AC0EF63DA
:1038F00007F8009407FADB01B9019D01DC01CA0158
:10390000AD01EF930E94DE1C0E940E1E0E94931CCC
:103910005F91552339F02BED3FE049E450FD49EC30
:103920000C94E41B0895DF93DD27B92FBF7740E89F
:103930005FE31616170648075B0718F4D92F0E9495
:103940004D1E9F938F937F936F930E94C21EE4E559
:10395000F0E00E94D91D0E940E1E2F913F914F91C1
:103960005F910E94681EDD2351F09058A2EA2AED73
:103970003FE049EC5FE3D0785D270E94FB1BDF91BD
:103980000C940E1E0E94AC1D08F481E008950E9464
:10399000DB1C0C940E1E0E94071E58F00E94001E95
:1039A00040F029F45F3F29F00C94D01D51110C9484
:1039B000421E0C94D61D0E941F1E68F39923B1F37A
:1039C000552391F3951B550BBB27AA276217730745
:1039D000840738F09F5F5F4F220F331F441FAA1FD9
:1039E000A9F335D00E2E3AF0E0E832D09150504095
:1039F000E695001CCAF72BD0FE2F29D0660F771F43
:103A0000881FBB1F261737074807AB07B0E809F028
:103A1000BB0B802DBF01FF2793585F4F3AF09E3FAD
:103A2000510578F00C94D01D0C94421E5F3FE4F3D6
:103A3000983ED4F3869577956795B795F7959F5FF0
:103A4000C9F7880F911D9695879597F90895E1E03C
:103A5000660F771F881FBB1F621773078407BA079B
:103A600020F0621B730B840BBA0BEE1F88F7E095F6
:103A700008950E94401D6894B1110C94421E08954F
:103A80000E94271E88F09F5798F0B92F9927B751A9
:103A9000B0F0E1F0660F771F881F991F1AF0BA95F2
:103AA000C9F714C0B13091F00E94411EB1E00895F1
:103AB0000C94411E672F782F8827B85F39F0B93FE3
:103AC000CCF3869577956795B395D9F73EF49095A5
:103AD0008095709561957F4F8F4F9F4F0895E89423
:103AE00009C097FB3EF490958095709561957F4F46
:103AF0008F4F9F4F9923A9F0F92F96E9BB279395F4
:103B0000F695879577956795B795F111F8CFFAF403
:103B1000BB0F11F460FF1BC06F5F7F4F8F4F9F4F34
:103B200016C0882311F096E911C0772321F09EE892
:103B3000872F762F05C0662371F096E8862F70E0F8
:103B400060E02AF09A95660F771F881FDAF7880FD2
:103B50009695879597F90895990F0008550FAA0B28
:103B6000E0E8FEEF16161706E807F907C0F0121690
:103B70001306E407F50798F0621B730B840B950B93
:103B800039F40A2661F0232B242B252B21F40895E8
:103B90000A2609F4A140A6958FEF811D811D089585
:103BA00097F99F6780E870E060E008959FEF80ECF0
:103BB0000895DF93CF931F930F93FF92EF92DF92BD
:103BC0007B018C01689406C0DA2EEF010E94681E0A
:103BD000FE01E894A5912591359145915591A6F363
:103BE000EF010E94FB1BFE019701A801DA9469F71F
:103BF000DF90EF90FF900F911F91CF91DF9108958B
:103C000000240A94161617061806090608950024BB
:103C10000A9412161306140605060895092E039435
:103C2000000C11F4882352F0BB0F40F4BF2B11F4A9
:103C300060FF04C06F5F7F4F8F4F9F4F089557FD08
:103C40009058440F551F59F05F3F71F04795880F0A
:103C500097FB991F61F09F3F79F0879508951216A1
:103C600013061406551FF2CF4695F1DF08C016164D
:103C700017061806991FF1CF8695710561050894FE
:103C80000895E894BB2766277727CB0197F9089515
:103C90000E94AC1D08F48FEF08959B01AC0160E019
:103CA00070E080E89FE30C94C71C0E94681E0C948F
:103CB0000E1E0E94001E38F00E94071E20F0952361
:103CC00011F00C94D01D0C94D61D11240C94421E9E
:103CD0000E941F1E70F3959FC1F3950F50E0551F72
:103CE000629FF001729FBB27F00DB11D639FAA2751
:103CF000F00DB11DAA1F649F6627B00DA11D661FA0
:103D0000829F2227B00DA11D621F739FB00DA11DC0
:103D1000621F839FA00D611D221F749F3327A00D7A
:103D2000611D231F849F600D211D822F762F6A2F16
:103D300011249F5750409AF0F1F088234AF0EE0F7B
:103D4000FF1FBB1F661F771F881F91505040A9F7A8
:103D50009E3F510580F00C94D01D0C94421E5F3F95
:103D6000E4F3983ED4F3869577956795B795F795E4
:103D7000E7959F5FC1F7FE2B880F911D969587955C
:103D800097F908959B01AC010C94551EDB018F93AC
:103D90009F930E94171FBF91AF91A29F800D911D0D
:103DA000A39F900DB29F900D11240895A1E21A2EA9
:103DB000AA1BBB1BFD010DC0AA1FBB1FEE1FFF1FCF
:103DC000A217B307E407F50720F0A21BB30BE40B1F
:103DD000F50B661F771F881F991F1A9469F7609566
:103DE0007095809590959B01AC01BD01CF01089520
:103DF000052E97FB1EF400940E940F1F57FD07D05D
:103E00000E94D61E07FC03D04EF40C940F1F509551
:103E10004095309521953F4F4F4F5F4F08959095B6
:103E20008095709561957F4F8F4F9F4F08950E94A9
:103E3000D620A59F900DB49F900DA49F800D911D3D
:103E400011240895DF93CF931F930F939A9DF02D24
:103E5000219FF00D8B9DF00D8A9DE02DF10D039FAC
:103E6000F00D029FE00DF11D4E9DE00DF11D5E9DD8
:103E7000F00D4F9DF00D7F936F93BF92AF925F93C4
:103E80004F93D5010E94D6208B01AC01D7010E942F
:103E9000D620EB01E80FF91FD6010E94711F2F9168
:103EA0003F91D6010E94D620C60FD71FE81FF91FE9
:103EB000AF91BF910E94711F2F913F910E94D62018
:103EC000C60FD71FE81FF91FD6010E94D620E60FA4
:103ED000F71F9801BE01CF010F911F91CF91DF9184
:103EE00008950E94D620460F571FC81FD91F08F4F7
:103EF00031960895E894DF93CF93FC01DB010E9493
:103F0000D6207F936F93E9019A01AC01BF93AF93E1
:103F10003F932F93DF010E94D62026F46C1B7D0B6C
:103F2000820B930B9E01EB01FC010E94711FAF916C
:103F3000BF912F913F910E94711FBE01CF01F901E6
:103F40002F913F91CF91DF910895689401C0E8943B
:103F5000F92FF12B12F00C94D91FA0E0B0E0E3EBA5
:103F6000FFE10C944B20092E059422F40E94352089
:103F7000112392F4F0E80F26FFEFE094F0940095FF
:103F80001095B094C094D094A194BF0ACF0ADF0AD0
:103F9000EF0AFF0A0F0B1F0B0E94E41F07FC0E9491
:103FA0003520CDB7DEB7ECE00C946720689401C0F3
:103FB000E8948F929F92CF93DF930E94E41FDF914A
:103FC000CF919F908F90089588249924F401E40163
:103FD000B0E49F93AA279A158B049C04ED05FE0577
:103FE000CF05D007A10798F4AD2FDC2FCF2FFE2FE0
:103FF000E92D982C892E982F872F762F652F542FF7
:10400000432F322F2227B85031F7BF9127C01B2EE4
:10401000BF91BB27220F331F441F551F661F771FF9
:10402000881F991F881C991CEE1FFF1FCC1FDD1FC6
:10403000AA1FBB1F8A149B04EC05FD05CE05DF05F6
:10404000A007B10748F08A189B08EC09FD09CE09C2
:10405000DF09A00BB10B21601A94E1F62EF4940154
:10406000AF01BE01CD01000C08956095709580955B
:10407000909530954095509521953F4F4F4F5F4F0C
:104080006F4F7F4F8F4F9F4F08952F923F924F92C8
:104090005F926F927F928F929F92AF92BF92CF92D8
:1040A000DF92EF92FF920F931F93CF93DF93CDB7E1
:1040B000DEB7CA1BDB0B0FB6F894DEBF0FBECDBF59
:1040C00009942A88398848885F846E847D848C842A
:1040D0009B84AA84B984C884DF80EE80FD800C8133
:1040E0001B81AA81B981CE0FD11D0FB6F894DEBF16
:1040F0000FBECDBFED010895002E083090F0982F2F
:10410000872F762F652F542F432F322F22270850C9
:10411000F4CF220F331F441F551F661F771F881FC0
:10412000991F0A95B2F7002D089597FD1094002E5F
:10413000083098F00850232F342F452F562F672F23
:10414000782F892F912DF4CF159497958795779592
:10415000679557954795379527950A95AAF711249E
:10416000002D08952A0D3B1D4C1D5D1D6E1D7F1DEC
:10417000801F911F08952A193B094C095D096E099A
:104180007F09800B910B08950024A7FD00942A1746
:1041900030054005500560057005800590050895BF
:1041A000EE0FFF1F0590F491E02D0994A29FB0013E
:1041B000B39FC001A39F700D811D1124911DB29F5B
:1041C000700D811D1124911D0895EF920F931F937F
:1041D000CF93DF93E80134E047FD34E1042E000C77
:1041E000550B57FF03C0519541955109E32E022FFE
:1041F000242FAE010E942E25CE01DF91CF911F9179
:104200000F91EF9008950F931F93CF93DF93823018
:10421000910510F482E090E0E0910505F09106052B
:1042200030E020E0B0E0A0E0309799F421153105AE
:1042300009F44AC0281B390B24303105D8F58A818E
:104240009B816115710589F1FB0193838283FE01D6
:1042500011C0408151810281138148175907E0F054
:104260004817590799F4109761F012960C9312971A
:1042700013961C933296CF01DF91CF911F910F912E
:1042800008950093050510930605F4CF2115310517
:1042900051F04217530738F0A901DB019A01BD0123
:1042A000DF01F801C1CFEF01F9CF909306058093AC
:1042B0000505CDCFFE01E20FF31F819391932250AC
:1042C000310939832883D7CF209103053091040524
:1042D000232B41F420916200309163003093040558
:1042E0002093030520916000309161002115310574
:1042F00041F42DB73EB74091640050916500241BF6
:10430000350BE0910305F0910405E217F307A0F4E3
:104310002E1B3F0B2817390778F0AC014E5F5F4F1B
:104320002417350748F04E0F5F1F50930405409344
:104330000305819391939FCFF0E0E0E09CCFCF9372
:10434000DF930097E9F0FC01329713821282A0916B
:104350000505B0910605ED0130E020E01097A1F4CD
:1043600020813181820F931F209103053091040534
:104370002817390709F061C0F0930405E09303059D
:10438000DF91CF910895EA01CE17DF07E8F54A8162
:104390005B819E0141155105B1F7E901FB83EA8379
:1043A00049915991C40FD51FEC17FD0761F4808125
:1043B00091810296840F951FE901998388838281F8
:1043C00093819B838A83F0E0E0E012968D919C912B
:1043D00013970097B9F52D913C911197CD01029655
:1043E000820F931F20910305309104052817390788
:1043F00039F6309751F51092060510920505B093E5
:104400000405A0930305BCCFD383C28340815181AF
:10441000840F951FC817D90761F44E5F5F4F8881DD
:104420009981480F591F518340838A819B819383CF
:1044300082832115310509F0B0CFF0930605E09392
:1044400005059ECFFD01DC01C0CF13821282D7CFBC
:10445000B0E0A0E0EEE2F2E20C9447208C0100977D
:1044600051F4CB010E9403218C01C801CDB7DEB706
:10447000E0E10C946320FC01E60FF71F9C01225041
:104480003109E217F30708F49DC0D901CD91DC9101
:104490001197C617D70798F0C530D10530F3CE0174
:1044A00004978617970708F3C61BD70B2297C1936B
:1044B000D1936D937C93CF010E949F21D6CF5B0156
:1044C000AC1ABD0A4C018C0E9D1EA0910505B09141
:1044D0000605512C412CF12CE12C109731F58091DF
:1044E0000305909104058815990509F05CC04616EE
:1044F000570608F058C080916000909161000097C5
:1045000041F48DB79EB74091640050916500841BC3
:10451000950BE817F90708F055C0F0930405E093F0
:104520000305F90171836083A0CF8D919C91119750
:1045300012966C90129713967C901397A815B90554
:1045400059F56C0142E0C40ED11CCA14DB0420F101
:10455000AC014A195B09DA011296159780F0628264
:10456000738251834083D9016D937C93E114F104EC
:1045700071F0D7011396FC93EE93129776CF2296A3
:104580008C0F9D1FF90191838083F301EFCFF0938E
:104590000605E093050569CF4816590608F42C0175
:1045A0007D01D3019ACFCB010E9403217C010097AA
:1045B00049F0AE01B8010E940C23C8010E949F215E
:1045C000870153CF10E000E050CF1F93FC019927E3
:1045D0008827BC01E89411911032E9F3193010F0EA
:1045E0001E30C8F31B3251F01D3249F4689406C0E6
:1045F0000E941C23610F711D811D911D119110538B
:104600001A30B0F33EF490958095709561957F4F88
:104610008F4F9F4F1F910895FB01DC0102C0019055
:104620000D9241505040D8F70895FB01DC010190F4
:104630000D920020E1F70895592F482F372F262F8C
:10464000660F771F881F991F660F771F881F991F96
:10465000620F731F841F951F660F771F881F991F96
:104660000895AEE0B0E0E7E3F3E20C9453200D8947
:104670001E8986E08C831A8309838FEF9FE79E83D0
:104680008D83AE01475E5F4F6F89788DCE010196B5
:104690000E9454232F813885020F131FF8011082C6
:1046A0002E96E4E00C946F20ABE0B0E0EAE5F3E294
:1046B0000C9445207C013B018A01FC011782168283
:1046C000838181FFC8C1CE0101965C01F70193810E
:1046D000F30193FD859193FF81913F01882309F4B4
:1046E00053C1853239F493FD859193FF81913F0148
:1046F000853229F4B70190E00E947B27E7CF912C07
:10470000212C312CFFE1F31538F08B3211F190F4AC
:10471000803209F1833229F137FC3CC020ED280FAB
:104720002A3050F536FE20C08AE0989E200D1124D4
:10473000922E06C08D3291F0803371F7689430F874
:10474000F30193FD859193FF81913F018111DACFB0
:1047500021C0689431F8689432F8F2CF689433F845
:10476000EFCF689434F8ECCFEAE02E9E200D1124B0
:10477000222E689435F8E4CF8E3229F436FC04C139
:10478000689436F8DDCF8C3619F4689437F8D8CFB2
:104790008836B1F2982F9F7D95549330E0F08336A0
:1047A000A1F18337C1F1833509F063C02801F2E03C
:1047B0004F0E511CF801C080D180692D70E036FC8D
:1047C00002C06FEF7FEFC6010E9465274C0168941D
:1047D00037F882010AC00C5F1F4FFFE3F98388247A
:1047E0008394912C6501E89437F833FE2DC0522C48
:1047F0008114910471F5552009F468CFB70180E266
:1048000090E00E947B275A94F6CFF801808189833B
:104810000E5F1F4FE4CF2801F2E04F0E511CF8014C
:10482000C080D180692D70E036FC02C06FEF7FEF51
:10483000C6010E9470274C018201D5CFB70180E2EA
:1048400090E00E947B272A942814190409F0B0F7FD
:10485000CECFF60137FC859137FE81916F01B7010C
:1048600090E00E947B2751105A94F1E08F1A910832
:10487000BFCF843619F0893609F077C0F80137FECA
:104880006BC060817181828193810C5F1F4FF32D1A
:10489000FF763F2E97FF09C09095809570956195A2
:1048A0007F4F8F4F9F4F689437F82AE030E0A50183
:1048B0000E94AB27C82ECA188C2C432C36FE0CC085
:1048C000E89440F8C91440F434FE05C032FC03C03B
:1048D000F32DFE7E4F2E892C44FE95C0FE01EC0D7B
:1048E000F11D8081803309F087C0242D297E422E5E
:1048F000842D8870582E43FC95C040FE8FC09C2CA0
:10490000821418F42C0C922C981844FE91C0B70114
:1049100080E390E00E947B2742FE09C088E790E098
:1049200041FE02C088E590E0B7010E947B27C914D0
:1049300008F48AC0CA94D12C9FEFC91AD90ACA0CAC
:10494000DB1CF60182916F01B70190E00E947B278A
:10495000AC14BD04B1F74FCF60817181072E000CFC
:10496000880B990B0E5F1F4F92CFD32CE894D4F88D
:104970002AE030E0853739F1232D297FD22E8F367A
:1049800001F148F48835A9F0F701868197812B96CB
:10499000E2E10C946120803749F08837A9F7D4FE12
:1049A00002C06894D2F820E130E00DC06894D4F8D9
:1049B000F6CF34FE03C0822F8660D82E20E132E08D
:1049C00002C028E030E0F801D7FE0FC0608171819D
:1049D000828193810C5F1F4FA5010E94AB27C82ED7
:1049E000CA183D2CE89437F867CF6081718190E058
:1049F00080E00E5F1F4FF0CF42FC02C0839478CF5F
:104A00008394839475CF842D867809F471CFF6CF83
:104A1000B70180E290E00E947B2783948214C0F368
:104A2000512C73CF522C5818821408F46ECFF8CF43
:104A3000842D867809F47BCF8BE241FE80E247FC2F
:104A40008DE2B70190E071CFB70180E390E00E9462
:104A50007B279A946CCF8FEF9FEF99CFA9E0B0E0BE
:104A6000E4E3F5E20C944B206A01F22EB02E102FF5
:104A7000FBE3AF2EA01608F41BE31F5F012F27E016
:104A8000AE014F5F5F4F0E948D26BC018981982F38
:104A90009970913009F43FC09BE2E1FC04C09E2D67
:104AA0009170E0FC3AC05E2D5071E82FE87083FFF2
:104AB00046C084E0911101C083E0EF2DE81B8F1503
:104AC00008F0E0E0D6018E2F20E2552351F1992322
:104AD00029F0D6019C93C60101966C0196012D5FC9
:104AE0003F4FE2FE24C08EE4D6018C9391E41196F0
:104AF0009C93119712968C93D9018E2F90E281117D
:104B00001BC0E20FF32FF11D10828EEF9FEF29964D
:104B1000ECE00C9467209DE2C6CF90E2C4CF2D93C9
:104B200081508111FCCFCE0ED11CE0E0D0CF8EE6BB
:104B3000D6018C9391E6DBCF9D938150E0CF482F37
:104B4000447082FF3DC084E0911101C083E08F1565
:104B500010F4EF2DE81BD6018E2F20E2552309F12A
:104B6000992329F0D6019C93C60101966C01960108
:104B70002D5F3F4FE2FE1BC089E4D6018C938EE48B
:104B800011968C93119786E412968C93D9018E2FEF
:104B900090E2882309F4B5CF9D938150FACF2D93ED
:104BA00081508111FCCFCE0ED11CE0E0D9CF89E637
:104BB000D6018C938EE611968C93119786E6E4CFFE
:104BC0009B0177FF02C030E020E0A1E0B0E091114E
:104BD00002C0B0E0A0E0F9013196AE0FBF1F8B2CF0
:104BE000912CBB2009F461C05401EFEFAE1ABE0A4C
:104BF000AA0DBB1DFA161B0619F014F04F2D4A1B07
:104C0000511188C0E3FC59C07601A42FB0E2A11174
:104C10004FC0C40ED11C992309F45BC040E0D601FB
:104C20001196F60190836D01552309F448C0012FB8
:104C3000060F9A81582F507184FF03C0913309F4F5
:104C4000015010160CF047C0093008F008E0EEE201
:104C5000FE2E5B01A01AB108850191948194910800
:104C60002F3F320729F4D601FC92F60131966F01ED
:104C70006217730794F1021713077CF5DB01A21B7F
:104C8000B30BAA24A394B12CAC0EBD1EAA0DBB1D60
:104C900011968C9121503109D601119628153905AC
:104CA000F4F0F60180836D01DBCFB12CA12CA0CFF5
:104CB000F701B1937F01A150AACF9111B0CFD601D6
:104CC000942F50E302C05D9391509111FCCFC40E1C
:104CD000D11C40E0ACCF01E0BACF80E3DBCF62175C
:104CE000730731F4963388F4953311F4552369F042
:104CF000F6018083FD01842F90E2811108C0A40F8A
:104D0000B11D1C9290E080E002CF81E3F1CF91933E
:104D10008150F3CF911183CF8ACF283008F027E05C
:104D20003327DA01990F311D87FD916000966105E7
:104D3000710539F432602E5F3D9330E32A95E1F737
:104D400008959F3F30F080387105610509F03C5FA0
:104D50003C5F3D93913008F08068911DDF93CF93C5
:104D60001F930F93FF92EF92192F987F9695E92F3B
:104D700096959695E90FFF27E452FF4F9927332721
:104D8000EE24FF24A701E70105900894079428F476
:104D9000360FE71EF81E491F511D660F771F881F2B
:104DA000991F0694A1F70590079428F4E70EF81EC2
:104DB000491F561FC11D770F881F991F661F069434
:104DC000A1F70590079428F4F80E491F561FC71F36
:104DD000D11D880F991F661F771F0694A1F70590B4
:104DE000079420F4490F561FC71FD81F990F661F3D
:104DF000771F881F0694A9F784911095177041F0CA
:104E0000D695C79557954795F794E7941A95C1F7A6
:104E1000E2E8F0E0689415901591359165919591CF
:104E200005907FE27395E118F10A430B560BC90B0D
:104E3000D009C0F7E10CF11E431F561FC91FD01D3A
:104E40007EF4703311F48A95E6CFE894015030F087
:104E5000080F0AF40027021708F4202F2395022FC9
:104E60007A3328F079E37D932A95E9F710C07D9392
:104E70002A9589F60694979567953795179517940F
:104E8000E118F10A430B560BC90BD00998F0239592
:104E90007E9173957A3308F070E37C932013B8F712
:104EA0007E9170617D9330F0839571E37D9370E323
:104EB0002A95E1F71124EF90FF900F911F91CF9168
:104EC000DF91992787FD90950895FC010590615029
:104ED00070400110D8F7809590958E0F9F1F089510
:104EE000FC016150704001900110D8F780959095B9
:104EF0008E0F9F1F08950F931F93CF93DF93182F4B
:104F0000092FEB018B8181FD09C01FEF0FEF812F6E
:104F1000902FDF91CF911F910F91089582FF14C0C0
:104F20002E813F818C819D81281739073CF4E881CF
:104F3000F981CF0101969983888310838E819F81A7
:104F400001969F838E83E3CFE885F985812F0995AC
:104F5000892BA1F3DACFFA01AA27283051F12031A9
:104F600081F1E8946F936E7F6E5F7F4F8F4F9F4FFD
:104F7000AF4FB1E03ED0B4E03CD0670F781F891F3F
:104F80009A1FA11D680F791F8A1F911DA11D6A0F0D
:104F9000711D811D911DA11D20D009F468943F91C0
:104FA0002AE0269F11243019305D3193DEF6CF01BF
:104FB0000895462F4770405D4193B3E00FD0C9F785
:104FC000F6CF462F4F70405D4A3318F0495D31FDF2
:104FD0004052419302D0A9F7EACFB4E0A695979545
:104FE000879577956795BA95C9F70097610571051B
:104FF00008959B01AC010A2E069457954795379565
:105000002795BA95C9F7620F731F841F951FA01DBE
:10501000089511E0CAE8D1E004C0FE010E94D0204A
:105020002196CB38D107C9F7F894FFCF00000705C8
:10503000800092010901646865696768743A006DCF
:105040006D00210D0A00303030302C303030302CE3
:105050003830235E00303030302C30303030002A91
:1050600058442C303030302C30300025732C253013
:1050700035642C25732C253035642C25732530346C
:10508000642C253034642C253034642C2530336472
:105090002C253033642C253033642C2530336425A3
:1050A000730073656E736F722076616C3A0062658F
:1050B000666F726520666E20636C6C006166747248
:1050C00020666E20636C6C000000000076115416A0
:1050D00072117511D211D511D51100000000C41242
:1050E000F31272118D1264126B127E120000000016
:0E50F000961B5416381B761B0A1B241B161B1E
:00000001FF
