S00B00005350432E7372656333
S113000010C028C027C026C025C024C023C022C0D9
S113001021C020C01FC01FC01DC01CC01BC01AC0EF
S113002019C011241FBECFEDCDBF10E0A0E6B0E093
S1130030ECECF4E002C005900D92AC36B107D9F7B0
S113004020E0ACE6B0E001C01D92AE37B207E1F7A4
S113005038D13AC2D5CF1F920F920FB60F92112406
S11300602F933F934F935F936F937F938F939F93BC
S1130070AF93BF9388B7816088BF82E882BFC99B72
S113008006C0809171008E7F8093710005C08091BD
S1130090710081608093710080917D00877039F4D4
S11300A0CA9905C080917D00846080937D00809111
S11300B07D0082FF19C080916C008F5F80936C007B
S11300C090916000981780F410926C00CA9907C050
S11300D080917D0081608B7F80937D0005C080913D
S11300E07D008B7F80937D0080917D0080FF0BC01D
S11300F0CA9B09C08A7F826080937D0080917100D1
S113010082608093710080917C00882309F44FC041
S11301108091770090917800A0917900B0917A0055
S11301200196A11DB11D8093770090937800A09350
S11301307900B0937A004091670050916800609113
S1130140690070916A00481759076A077B0768F4C9
S113015010927700109278001092790010927A0031
S11301608091710080648093710080916E00909101
S11301706F00019690936F0080936E002091610050
S1130180309162002817390790F410926F00109292
S11301906E0080916D00809580936D00882321F01E
S11301A088B3846088BB03C088B38B7F88BB80918D
S11301B07B00882309F44FC08091730090917400F0
S11301C0A0917500B09176000196A11DB11D809398
S11301D0730090937400A0937500B09376004091DF
S11301E06300509164006091650070916600481747
S11301F059076A077B0768F4109273001092740021
S1130200109275001092760080917100806880933E
S1130210710080916E0090916F00019690936F0031
S113022080936E0020916100309162002817390795
S113023090F410926F0010926E0080916D00809582
S113024080936D00882321F088B3846088BB03C049
S113025088B38B7F88BBBF91AF919F918F917F9122
S11302606F915F914F913F912F910F900FBE0F901F
S11302701F901895CF93DF931F92CDB7DD271ABA3D
S113028088E08ABB17BA87E087BB1092700089B3F5
S1130290827089838981882331F0809171008E7FF7
S11302A08093710005C0809171008160809371001A
S11302B00F90DF91CF91089510927C0010927B00F3
S11302C008950FB6F894A89581B5886181BD11BCD5
S11302D00FBEF2DFCFDFEED07894809172008230CF
S11302E009F45FC028F4882361F0813041F1F4CF30
S11302F0843009F4DCC008F4A3C0853009F486C056
S1130300EBCF88B3846088BB10926F0010926E00AC
S113031010927C0010927B0080917D0081FF03C0CD
S11303208D7F80937D008091710080FFD5CF81E027
S1130330809372008BB3877F8BBBBEDFCDCF809160
S11303407D0081FFC9CF8BB388608BBB8091710026
S113035080FF21C08091700081110FC084EF91E073
S1130360909362008093610082E08093720081E048
S113037080937C0010927B000EC082E390E0909307
S113038062008093610083E08093720010927C008D
S113039081E080937B0080917D008D7F80937D0040
S11303A09BCF80917D0081FF03C08D7F80937D0072
S11303B08091710080FD06C0109272008BB3877F1C
S11303C08BBB8ACF86FF88CF8F7B809371008BB3E2
S11303D0877F8BBB81E08093700085E080937200FF
S11303E010927700109278001092790010927A009F
S11303F0109273001092740010927500109276009F
S113040088B3846088BB10927C0066CF80917100B1
S113041080FD62CF81E08093700010927200109290
S11304207700109278001092790010927A0010925E
S113043073001092740010927500109276004CCFE5
S113044080917D0081FF03C08D7F80937D0080912A
S1130450710080FD06C010927B0088B3846088BB65
S11304603BCF91E090937B0088230CF035CF109222
S1130470700094E0909372001092770010927800CC
S11304801092790010927A00109273001092740006
S113049010927500109276008F7380937100109201
S11304A07C0010927B0088B3846088BB15CF1092C7
S11304B0720012CF10BE13BE82E083BF82E882BFF7
S10F04C081E088BF89BF0895F894FFCF45
S10F04CC14F401E0930400A0BB0D000038
S9030000FC
